:100000000C945F000C9487000C9487000C9487007C
:100010000C9487000C9487000C9487000C94870044
:100020000C9487000C9487000C9487000C94870034
:100030000C9487000C9487000C9487000C94870024
:100040000C94ED010C9487000C945F040C9439041B
:100050000C9487000C9487000C9487000C94870004
:100060000C9491040C948700C806CB06CE06D106EA
:10007000D406D706DA0600000000250028002B0071
:10008000040404040404040402020202020203033E
:100090000303030301020408102040800102040846
:1000A00010200102040810200000000800020100D6
:1000B000000304070000000000000000FF061124F8
:1000C0001FBECFEFD8E0DEBFCDBF11E0A0E0B1E0B2
:1000D000E2E9FDE102C005900D92AE37B107D9F714
:1000E00022E0AEE7B1E001C01D92AA3FB207E1F7FE
:1000F00010E0CFE5D0E004C02197FE010E94B40AD1
:10010000CE35D107C9F70E9438070C94C70E0C945E
:10011000000090E0FC01E855FF4F2491FC01EC56F3
:10012000FF4F3491FC01E058FF4FE491EE23B1F111
:10013000222339F1233091F038F42130A9F0223014
:1001400001F584B58F7D12C0273091F02830A1F0E1
:100150002430B9F4809180008F7D03C080918000AD
:100160008F77809380000DC084B58F7784BD09C0E0
:100170008091B0008F7703C08091B0008F7D809315
:10018000B000F0E0EE0FFF1FEA58FF4FA591B491C9
:100190008FB7F894EC913E2B3C938FBF08953FB7F7
:1001A000F8948091AB029091AC02A091AD02B09115
:1001B000AE0226B5A89B05C02F3F19F00196A11DE0
:1001C000B11D3FBFBA2FA92F982F8827820F911DED
:1001D000A11DB11DBC01CD0142E0660F771F881F34
:1001E000991F4A95D1F70895009769F0FC01019095
:1001F0000020E9F73197AF01481B590BBC0187EF8D
:1002000091E00C94370280E090E008958F929F92E5
:10021000AF92BF920F931F93CF93DF93CDB7DEB70B
:10022000A1970FB6F894DEBF0FBECDBF19A2423022
:1002300008F44AE08E010F5D1F4F842E912CA12CF3
:10024000B12CA50194010E94920AE62FB901CA01BE
:1002500001501109EA3014F4E05D01C0E95CD801F5
:10026000EC93232B242B252B61F7C8010E94F4006B
:10027000A1960FB6F894DEBF0FBECDBFDF91CF9130
:100280001F910F91BF90AF909F908F9008952091F4
:10029000F6019091F501213208F04AC08091D20117
:1002A0008111FCCF32E03093D20131E03093D101A3
:1002B0003FEF3093D0011092CF012093CE01A5EDF6
:1002C000B1E04EEA51E0FA013E2F341B321718F428
:1002D0003D913193F9CF1092AD012091AD01990F6D
:1002E000922B9093AD019091AC01913061F41092FA
:1002F000AC019091AD019093BB009091BC0093FD37
:10030000F8CF95EC01C095EE9093BC009091D2018E
:100310009230E1F39091D0019F3F79F08091D0012C
:10032000803241F08091D001803331F084E005C00B
:1003300081E003C082E001C083E01092D4011092FA
:10034000F6011092D30108959091D2019111FCCF42
:10035000813208F080E291E09093D2019093D10134
:100360002FEF2093D0011092CF01280F2093CE01C0
:100370009093AD019091AD01906D9093AD019091EE
:10038000AC01913061F41092AC019091AD01909369
:10039000BB009091BC0093FDF8CF95EC01C095EEA9
:1003A0009093BC009091D2019130E1F39091CF01F4
:1003B000981710F48091CF01AEEAB1E02CE831E05B
:1003C000F9019E2F921B981718F49D919193F9CFE4
:1003D00010928B0180938A0108951F920F920FB69D
:1003E0000F9211242F933F938F939F93AF93BF93BB
:1003F0008091A7029091A802A091A902B091AA02AF
:100400003091A60223E0230F2D3720F40196A11D81
:10041000B11D05C026E8230F0296A11DB11D209332
:10042000A6028093A7029093A802A093A902B0937A
:10043000AA028091AB029091AC02A091AD02B09162
:10044000AE020196A11DB11D8093AB029093AC0248
:10045000A093AD02B093AE02BF91AF919F918F91E7
:100460003F912F910F900FBE0F901F901895CF9234
:10047000DF92EF92FF920F931F93CF93DF936C0164
:100480007A018B01C0E0D0E0CE15DF0589F0D801FC
:100490006D918D01D601ED91FC910190F081E02DDF
:1004A000C6010995892B11F47E0102C02196ECCF7B
:1004B000C701DF91CF911F910F91FF90EF90DF90D7
:1004C000CF900895FC01918D828D981761F0828DF7
:1004D000DF01A80FB11D5D968C91928D9F5F9F7378
:1004E000928F90E008958FEF9FEF0895FC01918D1A
:1004F000828D981731F0828DE80FF11D858D90E087
:1005000008958FEF9FEF0895FC01918D228D892F23
:1005100090E0805C9F4F821B91098F73992708950B
:1005200087EF91E00E94840221E0892B09F420E00A
:10053000822F0895FC01848DDF01A80FB11DA35AFD
:10054000BF4F2C91848D90E001968F739927848FF3
:10055000A689B7892C93A089B1898C9180648C93EA
:10056000938D848D981306C00288F389E02D8081D5
:100570008F7D80830895EF92FF920F931F93CF9307
:10058000DF93EC0181E0888F9B8D8C8D981305C0E3
:10059000E889F989808185FD24C0F62E0B8D10E055
:1005A0000F5F1F4F0F731127E02E8C8DE8120CC0C8
:1005B0000FB607FCFACFE889F989808185FFF5CF6E
:1005C000CE010E949A02F1CF8B8DFE01E80FF11D42
:1005D000E35AFF4FF0820B8FEA89FB8980818062AA
:1005E00007C0EE89FF896083E889F989808180648A
:1005F000808381E090E0DF91CF911F910F91FF9078
:10060000EF900895CF93DF93EC01888D8823C9F094
:10061000EA89FB89808185FD05C0A889B9898C910B
:1006200086FD0FC00FB607FCF5CF808185FFF2CFA6
:10063000A889B9898C9185FFEDCFCE010E949A02DD
:10064000E7CFDF91CF91089580E090E0892B29F0EA
:100650000E94900281110C94000008950895E09189
:100660008B0180918A01E81730F4F0E0E457FE4FE7
:10067000808190E008958FEF9FEF089590918B0116
:1006800080918A01981750F4E92FF0E0E457FE4F6B
:10069000208130E09F5F90938B0102C02FEF3FEFEE
:1006A000C901089580918A0190E020918B01821BFD
:1006B0009109089585ED8093BC008091BC0084FD74
:1006C000FCCF1092D20108954091D102262F30E044
:1006D000240F311D21323105DCF42091D201243068
:1006E000C9F4FC0180E090E0861758F43091D10203
:1006F0002191DC01A155BD4FA30FB11D2C93019693
:10070000F3CF8091D102680F6093D10280E0089509
:1007100081E0089582E00895CF92DF92EF92FF92F8
:100720000F931F93CF93DF937C01262F972F8A017E
:100730008091D301882391F0C62FD72F6E01C40E6C
:10074000D51ECC15DD0571F06991D701ED91FC91B5
:100750000190F081E02DC7010995F3CF642F822F1E
:100760000E946403C801DF91CF911F910F91FF9008
:10077000EF90DF90CF900895CF93DF931F92CDB786
:10078000DEB769832091D3012223D1F02091F601B5
:10079000203240F021E030E0FC013383228380E00E
:1007A00090E015C08091D401E82FF0E0EB52FE4FAD
:1007B000998190838F5F8093D4018093F60105C067
:1007C00061E0CE0101960E94640381E090E00F9009
:1007D000DF91CF9108950E94570DEF92FF920F93F2
:1007E0001F93CF93DF93EC01198218821B821A8228
:1007F0001D821C8261157105A9F17B01FB0101902D
:100800000020E9F731978F01061B170BB8016F5FC6
:100810007F4F80E090E00E948D0C009759F0998303
:1008200088831B830A832C813D81232B81F4FC0167
:1008300010820DC088819981009711F00E94F50BFC
:10084000198218821D821C821B821A820BC01D8392
:100850000C83B701DF91CF911F910F91FF90EF9023
:100860000C94650DDF91CF911F910F91FF90EF9048
:1008700008951F920F920FB60F9211242F933F935A
:100880004F935F936F937F938F939F93AF93BF9398
:10089000EF93FF9387EF91E00E949A02FF91EF910F
:1008A000BF91AF919F918F917F916F915F914F9188
:1008B0003F912F910F900FBE0F901F9018951F9290
:1008C0000F920FB60F9211242F938F939F93EF9354
:1008D000FF93E0910702F09108028081E0910D0200
:1008E000F0910E0282FD12C09081809110028F5F04
:1008F0008F7320911102821751F0E0911002F0E005
:10090000E950FE4F958F8093100201C08081FF91C6
:10091000EF919F918F912F910F900FBE0F901F908D
:1009200018951F920F920FB60F9211242F933F9399
:100930004F935F936F937F938F939F93AF93BF93E7
:10094000EF93FF938091B900887F803609F49CC0B3
:1009500068F5883209F45BC090F4803109F454C022
:1009600038F4882309F4F6C0883009F44DC0F6C085
:10097000883109F44CC0803209F45DC0EFC0803486
:1009800009F468C048F4803309F455C0883309F08D
:10099000E5C08093D001D8C0803509F44FC08835B8
:1009A00009F45DC0883409F0D9C0D6C0883909F48B
:1009B000C7C0A8F4883709F467C038F4883609F44A
:1009C00063C0803709F460C0C9C0883809F4B8C072
:1009D000803909F45FC0803809F0C0C05BC0803B3B
:1009E00009F486C038F4803A09F466C0883A09F4FC
:1009F0007FC0B4C0803C09F4A7C0883C09F4A4C0FF
:100A0000883B09F48AC0AAC08091AD0110C09091C2
:100A1000CF018091CE01981770F5E091CF0181E070
:100A20008E0F8093CF01F0E0E255FE4F80818093DE
:100A3000BB0085EC86C08093D0018EC0E091CF01D1
:100A400081E08E0F8093CF018091BB00F0E0E255F2
:100A5000FE4F80839091CF018091CE016EC0E091D6
:100A6000CF0181E08E0F8093CF018091BB00F0E039
:100A7000E255FE4F80838091D10181116DC081E0EC
:100A80008093AC0184EA61C083E08093D20110922C
:100A9000F502CFCF8091F502803208F051C0E0918D
:100AA000F50281E08E0F8093F5028091BB00F0E0AB
:100AB000EB52FD4F8083BDCF85EC8093BC0010923C
:100AC000D2018091F502803230F4E091F502F0E03D
:100AD000EB52FD4F10826091F50270E0E091D3027D
:100AE000F091D40285ED92E009951092F50236C09E
:100AF00084E08093D2011092D2021092D102E09150
:100B0000CF02F091D00209958091D102811105C0E8
:100B100081E08093D1021092AF02E091D20281E095
:100B20008E0F8093D202F0E0E155FD4F80818093DB
:100B3000BB009091D2028091D102981708F479CF2E
:100B400085E88093BC000AC085EC8093BC001092BD
:100B5000D20104C01092D0010E945A03FF91EF917C
:100B6000BF91AF919F918F917F916F915F914F91C5
:100B70003F912F910F900FBE0F901F90189581E01D
:100B80008093D30188E68093F5011092D4011092EE
:100B9000F60160E084E992E00E94BC030E944701F4
:100BA00087E090E00E94A40190918A0180918B01DE
:100BB000981709F47BC084E992E00E943E03809379
:100BC000800184E992E00E943E038093810184E9E0
:100BD00092E00E943E038093820184E992E00E94A9
:100BE0003E0380937E0184E992E00E943E0380935D
:100BF000850184E992E00E943E038093840184E9A8
:100C000092E00E943E0390918001292F22952F703F
:100C10009F703AE0239F900D112490938001909152
:100C20008101292F22952F709F703AE0239F900D0C
:100C300011249093810190918201292F2073269590
:100C400026952695322F330F330F230F9F70920F67
:100C50009093820190917E01977090937E01909184
:100C60008501292F2073269526952695322F330F3F
:100C7000330F230F9F70920F909385019091840101
:100C800094FB222720F9220F322F330F330F230F2B
:100C90009F70920F90938401982F92959F708F7000
:100CA0002AE0929F800D112480938301909184010A
:100CB00020917E01933051F018F4913090F12FC0C3
:100CC0009A30C9F070F19D3050F12BC040918501F0
:100CD000493128F1273031F481E0309182013230FE
:100CE00008F51DC0342F321B393108F4395F81E01B
:100CF0004317C0F414C040918501493190F027306A
:100D000031F481E030918201323060F008C0342F3C
:100D1000321B393108F4395F81E0341718F480E070
:100D200001C081E080937F01882329F180918201B5
:100D30008F5F883118F4809382011DC01092820168
:100D40002F5F283018F420937E0103C081E0809348
:100D50007E01809185018F5F80938501E92FF0E00E
:100D6000EA5DFE4F2081281730F481E080938501F1
:100D70009F5F90938401E0917E018E2F90E0FC01B3
:100D80003197E730F105E0F4EC5CFF4F0C94B40AC6
:100D90006FE571E011C063E671E00EC067E671E0D7
:100DA0000BC06BE671E008C06FE671E005C063E759
:100DB00071E002C067E771E086E891E00C94650D90
:100DC00008950F931F93CF93C82F8B018A3020F47F
:100DD0008BE791E00E94F4006C2F70E080E090E0DF
:100DE0004AE00E940601F8014481558160817181C9
:100DF00087EF91E0CF911F910F910C943702E7EFAD
:100E0000F1E01382128288EE93E0A0E0B0E08483E8
:100E10009583A683B7832AE031E03183208325ECD4
:100E200030E03587248724EC30E03787268720ECB4
:100E300030E0318B208B21EC30E0338B228B22ECA5
:100E400030E0358B248B26EC30E0378B268B118EEF
:100E5000128E138E148EE4E9F2E0138212828483E0
:100E60009583A683B7838AE191E091838083089577
:100E7000CF93DF9300D000D000D0CDB7DEB7789409
:100E800084B5826084BD84B5816084BD85B582608F
:100E900085BD85B5816085BD80916E008160809340
:100EA0006E001092810080918100826080938100A9
:100EB00080918100816080938100809180008160B9
:100EC000809380008091B10084608093B100809114
:100ED000B00081608093B00080917A00846080933C
:100EE0007A0080917A00826080937A0080917A0003
:100EF000816080937A0080917A00806880937A0084
:100F00001092C10010928B0110928A011092D401AC
:100F10001092F6011092D20181E08093D1011092DB
:100F2000AC0182E10E94890083E10E9489008091E6
:100F3000B9008E7F8093B9008091B9008D7F809336
:100F4000B90088E48093B80085E48093BC00E09108
:100F50000702F091080282E08083E0910302F091A1
:100F600004021082E0910502F09106028FEC80836A
:100F700010920F02E0910B02F0910C0286E0808348
:100F8000E0910902F0910A02808180618083E09102
:100F90000902F0910A02808188608083E091090251
:100FA000F0910A02808180688083E0910902F091CB
:100FB0000A0280818F7D808301E048E6B42E1AE02A
:100FC00087EF91E00E948402892B09F4FDC087EF2E
:100FD00091E00E9462028435910509F0F5C087EF27
:100FE00091E00E9462027C0187EF91E00E94620220
:100FF000805320E3E21AF108682E9AE0E99E600C23
:1010000011246092800187EF91E00E9462027C01CE
:1010100087EF91E00E946202805320E3E21AF10818
:10102000782E9AE0E99E700C11247092810187EF6E
:1010300091E00E9462027C0187EF91E00E946202CF
:10104000805320E3E21AF108C82E9AE0E99EC00C12
:101050001124C092820187EF91E00E94620230ED7C
:10106000A32EA80EA0927E0187EF91E00E9462025B
:101070007C0187EF91E00E946202805320E3E21A34
:10108000F108D82E9AE0E99ED00C1124D092850167
:1010900087EF91E00E9462022C0187EF91E00E94AD
:1010A0006202805320E3421A5108E82E9AE0499EDA
:1010B000E00C1124E092840187EF91E00E9462022B
:1010C0002C0187EF91E00E946202805320E3421AD4
:1010D0005108F82E9AE0499EF00C1124F0928301F9
:1010E0000093D301B092F5011092D4011092F60151
:1010F00060E084E992E00E94BC03862D612F0E948B
:10110000860A692F20E1829F600D112484E992E014
:101110000E94BC03872D612F0E94860A692F20E15F
:10112000829F600D112484E992E00E94BC038C2D03
:10113000612F0E94860A692F20E1829F600D112491
:1011400084E992E00E94BC038A2D612F0E94860AE6
:10115000692F20E1829F600D112484E992E00E94B2
:10116000BC038D2D612F0E94860A692F20E1829F8A
:10117000600D112484E992E00E94BC038E2D612F42
:101180000E94860A692F20E1829F600D112484E964
:1011900092E00E94BC038F2D612F0E94860A692F66
:1011A00020E1829F600D112484E992E00E94BC033B
:1011B0000E9447010E94BF0587E391E00E94F4006E
:1011C00083E391E00E94F4000E94BF0586E891E06D
:1011D0000E94F40086E391E00E94F40069E371E06C
:1011E000CE0101960E94ED03BE016F5F7F4F80919B
:1011F00085010E94E10689819A810E94F50B6BE3CB
:1012000071E0CE0101960E94ED03BE016F5F7F4F3A
:10121000809184010E94E10689819A810E94F50BE8
:101220006DE371E0CE0101960E94ED03BE016F5F98
:101230007F4F809183010E94E10689819A810E94FB
:10124000F50B61E471E0CE0101960E94ED03BE0151
:101250006F5F7F4F809182010E94E10689819A81B0
:101260000E94F50B61E471E0CE0101960E94ED034E
:10127000BE016F5F7F4F809181010E94E1068981ED
:101280009A810E94F50B63E471E0CE0101960E9401
:10129000ED03BE016F5F7F4F809180010E94E106E8
:1012A00089819A810E94F50B0093D301B092F501D8
:1012B0001092D4011092F60161E184E992E00E945B
:1012C000BC030E94470182E090E00E94A40190913B
:1012D0008A0180918B019817C1F184E992E00E9404
:1012E0003E03D82E8093A50284E992E00E943E033B
:1012F0007C018093A4026D2D6F7770E080E090E018
:101300000E94730D2B013C01C701992726E095959A
:1013100087952A95E1F7BC01990F880B990B0E94DC
:10132000730D20E030E040E85EE30E94D20D9B01A7
:10133000AC01C301B2010E94BB0A6093A00270938A
:10134000A1028093A2029093A302C090A002D09029
:10135000A102E090A202F090A302A7019601C701AA
:10136000B6010E945B0B882319F08DE491E01AC04E
:1013700026013701E89477F82FEF3FEF4FE75FE75B
:10138000C301B2010E945B0B81110FC02FEF3FEF31
:101390004FE75FE7C301B2010E946C0D18162CF4F1
:1013A00081E591E00E94F4007BC02FEF3FEF4FE713
:1013B0005FE4C701B6010E94560B18161CF485E5C0
:1013C00091E0F0CF2FEF3FEF4FE75FECC701B601A1
:1013D0000E946C0D87FDF3CF20E030E0A901C7012A
:1013E000B6010E946C0D87FF0FC0E091F701F091EC
:1013F000F8010190F081E02D6DE287EF91E0099511
:10140000F7FAF094F7F8F0942AE037ED43EA5BE35B
:10141000C701B6010E94BB0A2B013C010E94270BA9
:101420006B017C010E94710D9B01AC01C301B201F3
:101430000E94BA0A2B013C014AE0C701B6010E9492
:10144000060189E591E00E94F40020E030E040E2EE
:1014500051E4C301B2010E94D20D2B013C010E9454
:10146000270B6B01E12CF12C4AE0C701B6010E9469
:101470000601C701B6010E94710D9B01AC01C301B9
:10148000B2010E94BA0A20E030E040E251E40E943A
:10149000D20D0E94270B80E090E04AE00E940601F6
:1014A00080917F01882321F08BE591E00E94F40078
:1014B00083E391E00E94F4000E94CF002B013C01E5
:1014C00088EEC82E83E0D82EE12CF12C0E94CF00AC
:1014D000DC01CB0184199509A609B709883E934020
:1014E000A105B10558F081E0C81AD108E108F1085A
:1014F00098EE490E93E0591E611C711CC114D10471
:10150000E104F10419F70E9424035ACD991B79E0F4
:1015100004C0991F961708F0961B881F7A95C9F783
:1015200080950895A1E21A2EAA1BBB1BFD010DC0D8
:10153000AA1FBB1FEE1FFF1FA217B307E407F50783
:1015400020F0A21BB30BE40BF50B661F771F881F5F
:10155000991F1A9469F760957095809590959B01F5
:10156000AC01BD01CF010895EE0FFF1F0590F4916E
:10157000E02D09945058BB27AA270E94D20A0C9448
:10158000560E0E94480E38F00E944F0E20F039F49B
:101590009F3F19F426F40C94450E0EF4E095E7FBFA
:1015A0000C943F0EE92F0E94670E58F3BA1762079A
:1015B00073078407950720F079F4A6F50C94890E3B
:1015C0000EF4E0950B2EBA2FA02D0B01B90190015E
:1015D0000C01CA01A0011124FF27591B99F0593FA2
:1015E00050F4503E68F11A16F040A22F232F342FEA
:1015F0004427585FF3CF469537952795A795F04038
:101600005395C9F77EF41F16BA0B620B730B840B4C
:10161000BAF09150A1F0FF0FBB1F661F771F881F04
:10162000C2F70EC0BA0F621F731F841F48F487955C
:1016300077956795B795F7959E3F08F0B0CF93954E
:10164000880F08F09927EE0F9795879508950E94C7
:101650006F0E88F09F5798F0B92F9927B751B0F0C7
:10166000E1F0660F771F881F991F1AF0BA95C9F726
:1016700014C0B13091F00E94890EB1E008950C942D
:10168000890E672F782F8827B85F39F0B93FCCF3E0
:10169000869577956795B395D9F73EF490958095A3
:1016A000709561957F4F8F4F9F4F08950E94AE0DAB
:1016B00008F48FEF08950E94AE0D880B990B0895E2
:1016C000CF93DF938230910510F482E090E0E091B7
:1016D000F802F091F90220E030E0C0E0D0E030976D
:1016E00011F14081518148175907C0F04817590737
:1016F00061F482819381209719F09B838A832BC0A8
:101700009093F9028093F80226C02115310519F053
:101710004217530718F49A01BE01DF01EF0102805E
:10172000F381E02DDCCF2115310509F1281B390BA0
:101730002430310590F412968D919C911397611588
:10174000710521F0FB019383828304C09093F90219
:101750008093F802FD01329644C0FD01E20FF31FB1
:1017600081939193225031092D933C933AC020915B
:10177000F6023091F702232B41F4209102013091BF
:1017800003013093F7022093F6022091000130917B
:1017900001012115310541F42DB73EB740910401F7
:1017A00050910501241B350BE091F602F091F702F0
:1017B000E217F307A0F42E1B3F0B2817390778F028
:1017C000AC014E5F5F4F2417350748F04E0F5F1F87
:1017D0005093F7024093F6028193919302C0E0E0A8
:1017E000F0E0CF01DF91CF9108950F931F93CF9336
:1017F000DF93009709F48CC0FC01329713821282A8
:101800000091F8021091F9020115110581F420816F
:101810003181820F931F2091F6023091F702281731
:10182000390779F5F093F702E093F60271C0D80119
:1018300040E050E0AE17BF0750F412962D913C9156
:101840001397AD012115310509F1D901F3CF9D01A0
:10185000DA013383228360817181860F971F82179B
:10186000930769F4EC0128813981260F371F2E5F19
:101870003F4F318320838A819B8193838283452BD1
:1018800029F4F093F902E093F80242C01396FC9316
:10189000EE931297ED01499159919E01240F351F46
:1018A000E217F30771F480819181840F951F0296EE
:1018B00011969C938E938281938113969C938E9321
:1018C0001297E0E0F0E0D80112968D919C91139769
:1018D000009719F0F8018C01F6CF8D919C91980139
:1018E0002E5F3F4F820F931F2091F6023091F70237
:1018F0002817390769F4309729F41092F9021092E9
:10190000F80202C0138212821093F7020093F602CB
:10191000DF91CF911F910F910895A0E0B0E0E3E92E
:10192000FCE00C94940EEC01009721F4CB010E9492
:10193000600BB8C0FC01E60FF71F9C012250310973
:10194000E217F30708F4ACC0D9010D911C9111976F
:1019500006171707B0F00530110508F49FC0C8013D
:1019600004978617970708F499C002501109061BBF
:10197000170B019311936D937C93CF010E94F50B8C
:101980008DC05B01A01AB10A4C01800E911EA0917E
:10199000F802B091F90240E050E0E12CF12C1097F0
:1019A00009F44AC0A815B905D1F56D907C9011973E
:1019B000630182E0C80ED11CCA14DB0480F1A301CC
:1019C0004A195B096A0182E0C80ED11C1296BC90CC
:1019D00012971396AC91B5E0CB16D10440F0B282C9
:1019E000A38351834083D9016D937C930AC00E5F1A
:1019F0001F4FC301800F911FF90191838083EB2D4D
:101A0000FA2FE114F10431F0D7011396FC93EE9311
:101A1000129744C0F093F902E093F8023FC08D9111
:101A20009C9111974817590708F4AC017D01129653
:101A30000D90BC91A02DB3CF8091F6029091F7024A
:101A400088159905E1F446175707C8F480910001FD
:101A500090910101009741F48DB79EB74091040128
:101A600050910501841B950BE817F907C8F4F09312
:101A7000F702E093F602F901718360830FC0CB0196
:101A80000E94600B7C01009759F0A801BE010E94E2
:101A90005C0DCE010E94F50BC70104C0CE0102C04F
:101AA00080E090E0CDB7DEB7EEE00C94B00E81E0C0
:101AB00090E0F8940C94C70EFB01DC0102C0019089
:101AC0000D9241505040D8F70895FB01DC01019080
:101AD0000D920020E1F708950E94AE0D08F481E018
:101AE0000895E89409C097FB3EF490958095709511
:101AF00061957F4F8F4F9F4F9923A9F0F92F96E95A
:101B0000BB279395F695879577956795B795F111CE
:101B1000F8CFFAF4BB0F11F460FF1BC06F5F7F4F6B
:101B20008F4F9F4F16C0882311F096E911C077237D
:101B300021F09EE8872F762F05C0662371F096E886
:101B4000862F70E060E02AF09A95660F771F881F55
:101B5000DAF7880F9695879597F90895990F0008F9
:101B6000550FAA0BE0E8FEEF16161706E807F9076F
:101B7000C0F012161306E407F50798F0621B730B0A
:101B8000840B950B39F40A2661F0232B242B252B8B
:101B900021F408950A2609F4A140A6958FEF811D2E
:101BA000811D08950E94E50D0C94560E0E94480E6A
:101BB00038F00E944F0E20F0952311F00C943F0E48
:101BC0000C94450E11240C948A0E0E94670E70F33B
:101BD000959FC1F3950F50E0551F629FF001729FD2
:101BE000BB27F00DB11D639FAA27F00DB11DAA1FE1
:101BF000649F6627B00DA11D661F829F2227B00D2E
:101C0000A11D621F739FB00DA11D621F839FA00DB8
:101C1000611D221F749F3327A00D611D231F849F08
:101C2000600D211D822F762F6A2F11249F5750405F
:101C30009AF0F1F088234AF0EE0FFF1FBB1F661FDA
:101C4000771F881F91505040A9F79E3F510580F0A3
:101C50000C943F0E0C948A0E5F3FE4F3983ED4F34D
:101C6000869577956795B795F795E7959F5FC1F747
:101C7000FE2B880F911D9695879597F9089597F9F2
:101C80009F6780E870E060E008959FEF80EC089522
:101C900000240A941616170618060906089500244B
:101CA0000A9412161306140605060895092E0394C5
:101CB000000C11F4882352F0BB0F40F4BF2B11F439
:101CC00060FF04C06F5F7F4F8F4F9F4F089557FD98
:101CD0009058440F551F59F05F3F71F04795880F9A
:101CE00097FB991F61F09F3F79F087950895121631
:101CF00013061406551FF2CF4695F1DF08C01616DD
:101D000017061806991FF1CF86957105610508948D
:101D10000895E894BB2766277727CB0197F90895A4
:101D20002F923F924F925F926F927F928F929F92EB
:101D3000AF92BF92CF92DF92EF92FF920F931F93D9
:101D4000CF93DF93CDB7DEB7CA1BDB0B0FB6F8948A
:101D5000DEBF0FBECDBF09942A88398848885F84CA
:101D60006E847D848C849B84AA84B984C884DF803B
:101D7000EE80FD800C811B81AA81B981CE0FD11D1F
:101D80000FB6F894DEBF0FBECDBFED010895F894F5
:021D9000FFCF83
:101D92000000FA02800000000000BB023702840249
:101DA20062027602020300000000BC038C035203AD
:101DB2003E032F032E03001F1C1F1E1F1E1F1F1E6C
:101DC2001F1E1F0D0A002C20002F002D00202D2089
:101DD200003A00202D2054656D703A20006E616E2D
:101DE20000696E66006F7666002E00205354004D27
:101DF2006F6E00547565005765640054687500463F
:0E1E02007269005361740053756E0030000069
:00000001FF
