:100000000C945D000C9485000C9485000C94850084
:100010000C9485000C9485000C9485000C9485004C
:100020000C9485000C9485000C9485000C9485003C
:100030000C9485000C9485000C9485000C9485002C
:100040000C9425060C9485000C9485000C94850076
:100050000C9485000C9485000C9485000C9485000C
:100060000C946F060C94850000000008000201004B
:100070000003040700000000000000000000000072
:10008000250028002B0000000000240027002A0083
:10009000040404040404040402020202020203032E
:1000A0000303030301020408102040800102040836
:1000B00010200102040810209D0711241FBECFEF5D
:1000C000D8E0DEBFCDBF11E0A0E0B1E0E4EBF0E2AC
:1000D00002C005900D92A037B107D9F722E0A0E742
:1000E000B1E001C01D92A935B207E1F710E0CDE5FE
:1000F000D0E004C02197FE010E94A409CC35D107AD
:10010000C9F70E94BD070C9458100C940000382FBA
:1001100020913C0290913B02213208F049C080912D
:1001200018028111FCCF42E040931802309317026D
:100130003FEF309316021092150220931402ABE1A8
:10014000B2E044EF51E0FA013E2F341B321718F4AD
:100150003D913193F9CF1092F3012091F301990F62
:10016000922B9093F3019091F201913061F41092EF
:10017000F2019091F3019093BB009091BC0093FD2C
:10018000F8CF95EC01C095EE9093BC0090911802C9
:100190009230E1F3909116029F3F79F08091160220
:1001A000803241F080911602803331F084E005C046
:1001B00081E003C082E001C083E010921A02109235
:1001C0003C0210921902089590E0FC01EC55FF4F9B
:1001D0002491FC01E057FF4F8491882399F090E02F
:1001E000880F991FFC01EA57FF4FA591B491FC01BC
:1001F000E458FF4F859194918FB7F894EC91E22BDE
:10020000EC938FBF089590E0FC01E859FF4F3491C3
:10021000FC01EC55FF4F2491FC01E057FF4FE491A6
:10022000EE2309F43BC0332339F1333091F038F435
:100230003130A9F0323001F584B58F7D12C03730EE
:1002400091F03830A1F03430B9F4809180008F7D86
:1002500003C0809180008F77809380000DC084B5AB
:100260008F7784BD09C08091B0008F7703C08091E3
:10027000B0008F7D8093B000F0E0EE0FFF1FE458D8
:10028000FF4FA591B4918FB7F894EC91611103C021
:1002900020952E2301C02E2B2C938FBF08953FB79E
:1002A000F8948091EE019091EF01A091F001B0914E
:1002B000F10126B5A89B05C02F3F19F00196A11D9D
:1002C000B11D3FBFBA2FA92F982F8827820F911DEC
:1002D000A11DB11DBC01CD0142E0660F771F881F33
:1002E000991F4A95D1F708958F929F92AF92BF922E
:1002F000CF92DF92EF92FF926B017C010E944F013F
:100300004B015C01C114D104E104F104F1F00E943D
:100310004F01DC01CB0188199909AA09BB09883E64
:100320009340A105B10570F321E0C21AD108E1089C
:10033000F10888EE880E83E0981EA11CB11CC11440
:10034000D104E104F10419F7DDCFFF90EF90DF90C5
:10035000CF90BF90AF909F908F900895CF92DF92F3
:10036000EF92FF920F931F93CF93DF936C017A016B
:100370008B01C0E0D0E0CE15DF0589F0D8016D918A
:100380008D01D601ED91FC910190F081E02DC60127
:100390000995892B11F47E0102C02196ECCFC7018B
:1003A000DF91CF911F910F91FF90EF90DF90CF9051
:1003B00008950895E091E0018091DF01E81730F49D
:1003C000F0E0E154FE4F808190E008958FEF9FEFC1
:1003D00008959091E0018091DF01981750F4E92F82
:1003E000F0E0E154FE4F208130E09F5F9093E00108
:1003F00002C02FEF3FEFC90108958091DF0190E027
:100400002091E001821B9109089585ED8093BC0045
:100410008091BC0084FDFCCF109218020895409199
:100420009A01262F30E0240F311D21323105DCF4F2
:10043000209118022430C9F4FC0180E090E0861776
:1004400058F430919A012191DC01A858BE4FA30FB6
:10045000B11D2C930196F3CF80919A01680F6093A0
:100460009A0180E0089581E0089582E00895CF9296
:10047000DF92EF92FF920F931F93CF93DF937C0154
:10048000262F972F8A0180911902882391F0C62F79
:10049000D72F6E01C40ED51ECC15DD0571F0699104
:1004A000D701ED91FC910190F081E02DC7010995F4
:1004B000F3CF642F822F0E940F02C801DF91CF91EA
:1004C0001F910F91FF90EF90DF90CF900895CF9301
:1004D000DF931F92CDB7DEB76983209119022223E3
:1004E000D1F020913C02203240F021E030E0FC01CC
:1004F0003383228380E090E015C080911A02E82FB8
:10050000F0E0E55EFD4F998190838F5F80931A0242
:1005100080933C0205C061E0CE0101960E940F026B
:1005200081E090E00F90DF91CF910895FC0124814C
:1005300031E03093190220933B0210921A0210927C
:100540003C028385682B8DE392E00E94670281E084
:100550000C9487000F931F93CF938C01C62F0E949A
:1005600096026C2F6460C8010E9496026C2F6B7F0C
:10057000C8010E94960283EC90E00197F1F7CF91B9
:100580001F910F910895FF920F931F93CF93DF93C5
:100590001F92CDB7DEB78C01F62E962F907F692F74
:1005A000642BC80149830E94AA0280E1F89EB00131
:1005B00011244981642BC8010F90DF91CF911F91C5
:1005C0000F91FF900C94AA02CF93DF93CDB7DEB7C3
:1005D00028970FB6F894DEBF0FBECDBF28E0EEE03F
:1005E000F1E0DE01119601900D922A95E1F720913C
:1005F0005102261710F46FEF620FFE013196E60FDD
:10060000F11DE60FF11D9081682F690F606840E0D1
:1006100089E492E028960FB6F894DEBF0FBECDBFF6
:10062000DF91CF910C94C30241E00E94C30281E0AC
:1006300090E008951092180281E0809317021092C2
:10064000F20161E082E10E94030161E083E10E9426
:100650000301E9EBF0E080818E7F808380818D7FD4
:10066000808388E48093B80085E48093BC0008957B
:10067000809177012091760130E09CE3899F200DE5
:10068000311D1124E1E3F1E080E090E041915191CE
:1006900024173507C8F04081518124173507A0F48D
:1006A000880F991FFC01ED5DFE4F6081718180E034
:1006B00090E00E94020F6093E5017093E601809341
:1006C000E7019093E80108950196E0CF009769F063
:1006D000FC0101900020E9F73197AF01481B590B4D
:1006E000BC0189E492E00C94AE0180E090E00895B2
:1006F0000E94470CEF92FF920F931F93CF93DF93CB
:10070000EC01198218821B821A821D821C826115DB
:100710007105A9F17B01FB0101900020E9F73197F8
:100720008F01061B170BB8016F5F7F4F80E090E0D1
:100730000E947D0B009759F0998388831B830A835D
:100740002C813D81232B81F4FC0110820DC0888116
:100750009981009711F00E94E50A198218821D8282
:100760001C821B821A820BC01D830C83B701DF9190
:10077000CF911F910F91FF90EF900C94550CDF914A
:10078000CF911F910F91FF90EF9008950F931F93BA
:10079000CF93DF93CDB7DEB728970FB6F894DEBFBF
:1007A0000FBECDBF8B018930910539F00A9749F40E
:1007B00070938B0060938A0004C0709389006093EB
:1007C000880061E0011580E1180708F060E08DE025
:1007D0000E94030161E00F3F8FEF180709F460E00A
:1007E0008CE00E9403011F930F9389E591E09F9392
:1007F0008F938E010F5F1F4F1F930F930E945C0C0E
:1008000060E08BE00E94E402C8010E9466030F9042
:100810000F900F900F900F900F9028960FB6F894AE
:10082000DEBF0FBECDBFDF91CF911F910F91089515
:100830008F929F92AF92BF92EF92FF920F931F936E
:10084000CF93DF93CDB7DEB7A1970FB6F894DEBF95
:100850000FBECDBF182F7B018A3020F48DE591E0CB
:100860000E946603212F30E040E050E019A28E0183
:100870000F5D1F4F8AE0882E912CA12CB12CCA014C
:10088000B901A50194010E948209605DF80162939B
:100890008F01211531054105510589F7CF010E94CE
:1008A0006603F701448155816081718189E492E09A
:1008B0000E94AE01A1960FB6F894DEBF0FBECDBF69
:1008C000DF91CF911F910F91FF90EF90BF90AF906C
:1008D0009F908F900895DF92EF92FF920F931F9356
:1008E000CF93DF93CDB7DEB727970FB6F894DEBF6F
:1008F0000FBECDBF81E08093190288E680933B0252
:1009000010921A0210923C0260E08DE392E00E9485
:10091000670281E00E948700809118028111FCCF5C
:1009200081E080931802809317029FEF9093160244
:100930001092150296E0909314028093F301809137
:10094000F301806D8093F3018091F201813061F4B5
:100950001092F2018091F3018093BB008091BC0062
:1009600083FDF8CF85EC01C085EE8093BC008091BB
:1009700018028130E1F380911502873018F48091DC
:10098000150201C087E0A4EFB1E02FEB31E0F901DF
:100990009E2F921B981718F49D919193F9CF109266
:1009A000E0018093DF01882309F441C18DE392E0E7
:1009B0000E94E901E82E8DE392E00E94E901F82E01
:1009C0008DE392E00E94E901282F8DE392E02F83CE
:1009D0000E94E901D82E8DE392E00E94E901082FE0
:1009E0008DE392E00E94E901182F8DE392E00E94CE
:1009F000E901382F8E2D82958F709E2D9F70E92EE4
:100A00004AE0849FE00C1124E09275018F2D8295BD
:100A10008F709F2D9F70F92E6AE0869FF00C112435
:100A2000F09276012F81422F407346954695469568
:100A3000842F880F880F480F2F70420F4093770143
:100A40005D2D577050937401202F207326952695A5
:100A50002695822F880F880F280F0F70200F209364
:100A6000730114FB992790F9990F892F880F880F2C
:100A7000980F1F70910F90937201832F82958F7042
:100A80003F706AE0869F300D1124309371019330DE
:100A900051F018F4913050F127C09A30A9F030F19C
:100AA0009D3010F123C02931F8F0573021F431E0A6
:100AB0004230E8F419C0822F851B893108F4895F20
:100AC00031E02817A0F410C0293180F0573021F40C
:100AD00031E0423060F008C0822F851B893108F474
:100AE000895F31E0821718F430E001C031E03093C3
:100AF0007001332309F14F5F483118F440937701B7
:100B00001BC0109277015F5F583019F05093740149
:100B100003C081E0809374012F5F20937301E92F5C
:100B2000F0E0EA5EFE4F8081821730F481E080932E
:100B300073019F5F9093720140E062E089E492E06C
:100B40000E94C3028BE39FE10197F1F769E671E030
:100B5000CE0101960E947A03BE016F5F7F4F8091A4
:100B600077010E94180489819A810E94E50A69E64A
:100B700071E0CE0101960E947A03BE016F5F7F4F44
:100B8000809176010E94180489819A810E94E50A69
:100B900065E671E0CE0101960E947A03BE016F5FA7
:100BA0007F4F809175010E94180489819A810E946B
:100BB000E50A61E080E00E94E4026BE671E0CE01AC
:100BC00001960E947A03BE016F5F7F4F809173018F
:100BD0000E94180489819A810E94E50A6DE671E0FD
:100BE000CE0101960E947A03BE016F5F7F4F809114
:100BF00072010E94180489819A810E94E50A8091FD
:100C00007001811103C064E671E002C06FE571E01C
:100C1000CE0101960E947A03BE016F5F7F4F8091E3
:100C200071010E94180489819A810E94E50A279621
:100C30000FB6F894DEBF0FBECDBFDF91CF911F91ED
:100C40000F91FF90EF90DF9008951F920F920FB6D3
:100C50000F9211242F933F938F939F93AF93BF9342
:100C60008091EA019091EB01A091EC01B091ED012E
:100C70003091E90123E0230F2D3720F40196A11DC7
:100C8000B11D05C026E8230F0296A11DB11D2093BA
:100C9000E9018093EA019093EB01A093EC01B093FA
:100CA000ED018091EE019091EF01A091F001B091E2
:100CB000F1010196A11DB11D8093EE019093EF010A
:100CC000A093F001B093F101BF91AF919F918F91EB
:100CD0003F912F910F900FBE0F901F9018951F926C
:100CE0000F920FB60F9211242F933F934F935F9360
:100CF0006F937F938F939F93AF93BF93EF93FF93E4
:100D00008091B900887F803609F49CC068F58832EC
:100D100009F45BC090F4803109F454C038F488239E
:100D200009F4F6C0883009F44DC0F6C0883109F4E2
:100D30004CC0803209F45DC0EFC0803409F468C053
:100D400048F4803309F455C0883309F0E5C0809336
:100D50001602D8C0803509F44FC0883509F45DC04B
:100D6000883409F0D9C0D6C0883909F4C7C0A8F4BE
:100D7000883709F467C038F4883609F463C08037CF
:100D800009F460C0C9C0883809F4B8C0803909F4D2
:100D90005FC0803809F0C0C05BC0803B09F486C0EA
:100DA00038F4803A09F466C0883A09F47FC0B4C0C8
:100DB000803C09F4A7C0883C09F4A4C0883B09F42E
:100DC0008AC0AAC08091F30110C090911502809151
:100DD0001402981770F5E091150281E08E0F809350
:100DE0001502F0E0EC50FE4F80818093BB0085EC53
:100DF00086C0809316028EC0E091150281E08E0FAE
:100E0000809315028091BB00F0E0EC50FE4F808390
:100E100090911502809114026EC0E091150281E05C
:100E20008E0F809315028091BB00F0E0EC50FE4FD6
:100E300080838091170281116DC081E08093F2015F
:100E400084EA61C083E0809318021092BE01CFCF84
:100E50008091BE01803208F051C0E091BE0181E076
:100E60008E0F8093BE018091BB00F0E0E256FE4FF2
:100E70008083BDCF85EC8093BC00109218028091D6
:100E8000BE01803230F4E091BE01F0E0E256FE4F48
:100E900010826091BE0170E0E0919C01F0919D0193
:100EA0008EE991E009951092BE0136C084E08093EE
:100EB000180210929B0110929A01E0919801F09112
:100EC0009901099580919A01811105C081E0809373
:100ED0009A0110927801E0919B0181E08E0F80933E
:100EE0009B01F0E0E858FE4F80818093BB00909119
:100EF0009B0180919A01981708F479CF85E8809337
:100F0000BC000AC085EC8093BC001092180204C09B
:100F1000109216020E940502FF91EF91BF91AF91CE
:100F20009F918F917F916F915F914F913F912F9101
:100F30000F900FBE0F901F901895EDE3F2E0138213
:100F4000128288EE93E0A0E0B0E084839583A683CC
:100F5000B78385E491E091838083E9E4F2E0138232
:100F6000128285E591E0918380838FE3848380E121
:100F7000818782E0828713860895789484B58260A1
:100F800084BD84B5816084BD85B5826085BD85B52D
:100F9000816085BD80916E00816080936E001092AB
:100FA0008100809181008260809381008091810026
:100FB00081608093810080918000816080938000B7
:100FC0008091B10084608093B1008091B000816015
:100FD0008093B00080917A00846080937A00809141
:100FE0007A00826080937A0080917A008160809399
:100FF0007A0080917A00806880937A001092C10014
:101000001092E0011092DF0110921A0210923C023D
:101010000E941A030E941A0310924E0280915302FA
:10102000823018F098E090934E028093510262E370
:1010300070E080E090E00E9474016091540289E4C5
:1010400092E00E94960268EE73E080E090E00E94D9
:10105000740160E389E492E00E94AA02CBE4D6E442
:10106000CE010197F1F760E389E492E00E94AA02C1
:101070002197F1F760E389E492E00E94AA0283E5F8
:1010800092E00197F1F760E289E492E00E94AA02FF
:1010900060914E02606240E089E492E00E94C302E7
:1010A00084E080934F0240E06CE089E492E00E948B
:1010B000C30240E061E089E492E00E94C302CBE316
:1010C000DFE1CE010197F1F782E08093500240E02A
:1010D00066E089E492E00E94C30240E062E089E4B5
:1010E00092E00E94C3022197F1F788E080935402B6
:1010F00060E089E492E00E9496028DE00E94E400A4
:101100008CE00E94E40084B1866084B982EA809316
:10111000800089E1809381008FEF9FEF909387009B
:10112000809386000E946B040E9438036091E50161
:101130007091E6018091E7019091E8016093E101EF
:101140007093E2018093E3019093E4010E941C0AF2
:101150008AE090E00E94C60384E6482E512C612C60
:10116000712CC0E0D0E08FB7F894C090EA01D09025
:10117000EB01E090EC01F090ED018FBFC701B601EB
:1011800028EE33E040E050E00E94820980910401A3
:1011900090910501A0910601B09107012817390728
:1011A0004A075B0761F020930401309305014093E7
:1011B0000601509307010E946B040E943803C70187
:1011C000B601A30192010E948209809100019091D1
:1011D0000101A0910201B0910301281739074A07C4
:1011E0005B0709F489C0209300013093010140930B
:1011F000020150930301C090E501D090E601E09018
:10120000E701F090E8018090E1019090E201A09068
:10121000E301B090E401A5019401C701B6010E9469
:10122000FD0E882309F468C0A5019401C701B60129
:101230000E944B0A18160CF529EB36E140E85FE3F3
:10124000C501B4010E94630F4B015C01A701960127
:101250000E944B0A87FF09C08092E1019092E2014F
:10126000A092E301B092E40108C0C092E101D092E3
:10127000E201E092E301F092E4018090E1019090BC
:10128000E201A090E301B090E401A5019401C7013F
:10129000B6010E94FD0E87FF21C029EB36E140E830
:1012A0005FE3C501B4010E94AA094B015C01A701DB
:1012B00096010E94FD0E18164CF48092E101909266
:1012C000E201A092E301B092E40108C0C092E10102
:1012D000D092E201E092E301F092E4016091E10139
:1012E0007091E2018091E3019091E4010E941C0A57
:1012F0008AE090E00E94C603209709F434CF0E9450
:10130000000031CFA1E21A2EAA1BBB1BFD010DC0AC
:10131000AA1FBB1FEE1FFF1FA217B307E407F507A5
:1013200020F0A21BB30BE40BF50B661F771F881F81
:10133000991F1A9469F760957095809590959B0117
:10134000AC01BD01CF010895EE0FFF1F0590F49190
:10135000E02D09940E94BE090C94E70F0E94E00F53
:1013600058F00E94D90F40F029F45F3F29F00C9407
:10137000D00F51110C941B100C94D60F0E94F80F33
:1013800068F39923B1F3552391F3951B550BBB27B4
:10139000AA2762177307840738F09F5F5F4F220FF9
:1013A000331F441FAA1FA9F335D00E2E3AF0E0E8F0
:1013B00032D091505040E695001CCAF72BD0FE2F3A
:1013C00029D0660F771F881FBB1F261737074807CE
:1013D000AB07B0E809F0BB0B802DBF01FF27935886
:1013E0005F4F3AF09E3F510578F00C94D00F0C946B
:1013F0001B105F3FE4F3983ED4F38695779567958D
:10140000B795F7959F5FC9F7880F911D96958795BA
:1014100097F90895E1E0660F771F881FBB1F6217D9
:1014200073078407BA0720F0621B730B840BBA0B97
:10143000EE1F88F7E09508950E94001088F09F57EE
:1014400098F0B92F9927B751B0F0E1F0660F771FE8
:10145000881F991F1AF0BA95C9F714C0B13091F0DE
:101460000E941A10B1E008950C941A10672F782F7B
:101470008827B85F39F0B93FCCF3869577956795A3
:10148000B395D9F73EF490958095709561957F4F0F
:101490008F4F9F4F08950E943F0F08F48FEF0895DC
:1014A000CF93DF938230910510F482E090E0E091D9
:1014B0005702F091580220E030E0C0E0D0E03097D1
:1014C00011F14081518148175907C0F04817590759
:1014D00061F482819381209719F09B838A832BC0CA
:1014E000909358028093570226C02115310519F0B8
:1014F0004217530718F49A01BE01DF01EF01028081
:10150000F381E02DDCCF2115310509F1281B390BC2
:101510002430310590F412968D919C9113976115AA
:10152000710521F0FB019383828304C090935802DC
:1015300080935702FD01329644C0FD01E20FF31F74
:1015400081939193225031092D933C933AC020917D
:10155000550230915602232B41F420910A0130911B
:101560000B013093560220935502209108013091CF
:1015700009012115310541F42DB73EB740910C0109
:1015800050910D01241B350BE0915502F09156024C
:10159000E217F307A0F42E1B3F0B2817390778F04A
:1015A000AC014E5F5F4F2417350748F04E0F5F1FA9
:1015B00050935602409355028193919302C0E0E00C
:1015C000F0E0CF01DF91CF9108950F931F93CF9358
:1015D000DF93009709F48CC0FC01329713821282CA
:1015E00000915702109158020115110581F42081D4
:1015F0003181820F931F2091550230915602281796
:10160000390779F5F0935602E093550271C0D8017D
:1016100040E050E0AE17BF0750F412962D913C9178
:101620001397AD012115310509F1D901F3CF9D01C2
:10163000DA013383228360817181860F971F8217BD
:10164000930769F4EC0128813981260F371F2E5F3B
:101650003F4F318320838A819B8193838283452BF3
:1016600029F4F0935802E093570242C01396FC937A
:10167000EE931297ED01499159919E01240F351F68
:10168000E217F30771F480819181840F951F029610
:1016900011969C938E938281938113969C938E9343
:1016A0001297E0E0F0E0D80112968D919C9113978B
:1016B000009719F0F8018C01F6CF8D919C9198015B
:1016C0002E5F3F4F820F931F20915502309156029B
:1016D0002817390769F4309729F4109258021092AC
:1016E000570202C0138212821093560200935502D1
:1016F000DF91CF911F910F910895A0E0B0E0E3E852
:10170000FBE00C942510EC01009721F4CB010E9422
:10171000500AB8C0FC01E60FF71F9C0122503109A6
:10172000E217F30708F4ACC0D9010D911C91119791
:1017300006171707B0F00530110508F49FC0C8015F
:1017400004978617970708F499C002501109061BE1
:10175000170B019311936D937C93CF010E94E50ABF
:101760008DC05B01A01AB10A4C01800E911EA091A0
:101770005702B091580240E050E0E12CF12C109754
:1017800009F44AC0A815B905D1F56D907C90119760
:10179000630182E0C80ED11CCA14DB0480F1A301EE
:1017A0004A195B096A0182E0C80ED11C1296BC90EE
:1017B00012971396AC91B5E0CB16D10440F0B282EB
:1017C000A38351834083D9016D937C930AC00E5F3C
:1017D0001F4FC301800F911FF90191838083EB2D6F
:1017E000FA2FE114F10431F0D7011396FC93EE9334
:1017F000129744C0F0935802E09357023FC08D9176
:101800009C9111974817590708F4AC017D01129675
:101810000D90BC91A02DB3CF8091550290915602AE
:1018200088159905E1F446175707C8F48091080117
:1018300090910901009741F48DB79EB740910C013A
:1018400050910D01841B950BE817F907C8F4F0932C
:101850005602E0935502F901718360830FC0CB01FA
:101860000E94500A7C01009759F0A801BE010E9415
:101870004C0CCE010E94E50AC70104C0CE0102C093
:1018800080E090E0CDB7DEB7EEE00C94411081E04F
:1018900090E0F8940C945810FB01DC0102C0019018
:1018A0000D9241505040D8F70895FB01DC010190A2
:1018B0000D920020E1F70895AEE0B0E0E2E6FCE032
:1018C0000C942F100D891E8986E08C831A8309835E
:1018D0008FEF9FE79E838D83AE01475E5F4F6F89D9
:1018E000788DCE0101960E947F0C2F813885F801FA
:1018F000E20FF31F10822E96E4E00C944B10ACE044
:10190000B0E0E5E8FCE00C9421107C016B018A0159
:10191000FC0117821682838181FFBDC1CE01019631
:101920004C01F7019381F60193FD859193FF81911D
:101930006F01882309F4ABC1853239F493FD859199
:1019400093FF81916F01853229F4B70190E00E94E5
:10195000670EE7CF512C312C20E02032A0F48B32DF
:1019600069F030F4803259F0833269F420612CC080
:101970008D3239F0803339F4216026C02260246032
:1019800023C0286021C027FD27C030ED380F3A3032
:1019900078F426FF06C0FAE05F9E300D1124532E26
:1019A00013C08AE0389E300D1124332E20620CC003
:1019B0008E3221F426FD6BC1206406C08C3611F4F2
:1019C000206802C0883641F4F60193FD859193FFAB
:1019D00081916F018111C1CF982F9F7D95549330D4
:1019E00028F40C5F1F4FFFE3F9830DC0833631F0FD
:1019F000833771F0833509F05BC022C0F801808124
:101A000089830E5F1F4F44244394512C540115C009
:101A10003801F2E06F0E711CF801A080B18026FF42
:101A200003C0652D70E002C06FEF7FEFC5012C870A
:101A30000E945C0E2C0183012C852F77222E17C06B
:101A40003801F2E06F0E711CF801A080B18026FF12
:101A500003C0652D70E002C06FEF7FEFC5012C87DA
:101A60000E94510E2C012C852068222E830123FC1C
:101A70001BC0832D90E048165906B0F4B70180E2F0
:101A800090E00E94670E3A94F4CFF50127FC85910F
:101A900027FE81915F01B70190E00E94670E31102F
:101AA0003A94F1E04F1A51084114510471F7E5C01E
:101AB000843611F0893639F5F80127FF07C06081B7
:101AC0007181828193810C5F1F4F08C06081718199
:101AD000072E000C880B990B0E5F1F4F2F76722E6E
:101AE00097FF09C090958095709561957F4F8F4FB6
:101AF0009F4F2068722E2AE030E0A4010E949F0EC2
:101B0000A82EA81844C0853729F42F7EB22E2AE0CB
:101B100030E025C0F22FF97FBF2E8F36C1F018F4C8
:101B2000883579F0B4C0803719F0883721F0AFC01C
:101B30002F2F2061B22EB4FE0DC08B2D8460B82EE5
:101B400009C024FF0AC09F2F9660B92E06C028E066
:101B500030E005C020E130E002C020E132E0F801D1
:101B6000B7FE07C060817181828193810C5F1F4F36
:101B700006C06081718180E090E00E5F1F4FA4017C
:101B80000E949F0EA82EA818FB2DFF777F2E76FEB1
:101B90000BC0372D3E7FA51450F474FE0AC072FCB2
:101BA00008C0372D3E7E05C0BA2C372D03C0BA2C95
:101BB00001C0B52C34FF0DC0FE01EA0DF11D80817E
:101BC000803311F4397E09C032FF06C0B394B39458
:101BD00004C0832F867809F0B39433FD13C030FF1F
:101BE00006C05A2CB31418F4530C5B18B32CB3145E
:101BF00068F4B70180E290E03C870E94670EB394DE
:101C00003C85F5CFB31410F43B1801C0312C34FFE0
:101C100012C0B70180E390E03C870E94670E3C85CC
:101C200032FF17C031FD03C088E790E002C088E5AD
:101C300090E0B7010CC0832F867859F031FF02C0C5
:101C40008BE201C080E237FD8DE2B70190E00E9497
:101C5000670EA51438F4B70180E390E00E94670E88
:101C60005A94F7CFAA94F401EA0DF11D8081B701CF
:101C700090E00E94670EA110F5CF332009F451CEF9
:101C8000B70180E290E00E94670E3A94F6CFF70128
:101C90008681978102C08FEF9FEF2C96E2E10C9432
:101CA0003D10FC010590615070400110D8F78095FF
:101CB00090958E0F9F1F0895FC0161507040019018
:101CC0000110D8F7809590958E0F9F1F08950F9360
:101CD0001F93CF93DF93FB01238121FD03C08FEF7F
:101CE0009FEF28C022FF16C046815781248135818D
:101CF0004217530744F4A081B1819D012F5F3F4FEC
:101D0000318320838C93268137812F5F3F4F378328
:101D1000268310C0EB01092F182F0084F185E02DD8
:101D20000995892BE1F68E819F8101969F838E8391
:101D3000812F902FDF91CF911F910F910895FA017C
:101D4000AA27283051F1203181F1E8946F936E7FFA
:101D50006E5F7F4F8F4F9F4FAF4FB1E03ED0B4E0EB
:101D60003CD0670F781F891F9A1FA11D680F791F2C
:101D70008A1F911DA11D6A0F711D811D911DA11D3D
:101D800020D009F468943F912AE0269F112430194D
:101D9000305D3193DEF6CF010895462F4770405DE8
:101DA0004193B3E00FD0C9F7F6CF462F4F70405D97
:101DB0004A3318F0495D31FD4052419302D0A9F7F2
:101DC000EACFB4E0A6959795879577956795BA95EC
:101DD000C9F700976105710508959B01AC010A2EB2
:101DE00006945795479537952795BA95C9F7620F89
:101DF000731F841F951FA01D08950E943F0F08F4B4
:101E000081E00895E89409C097FB3EF49095809591
:101E1000709561957F4F8F4F9F4F9923A9F0F92FB0
:101E200096E9BB279395F695879577956795B7952E
:101E3000F111F8CFFAF4BB0F11F460FF1BC06F5F14
:101E40007F4F8F4F9F4F16C0882311F096E911C026
:101E5000772321F09EE8872F762F05C0662371F047
:101E600096E8862F70E060E02AF09A95660F771F5B
:101E7000881FDAF7880F9695879597F90895990F37
:101E80000008550FAA0BE0E8FEEF16161706E80744
:101E9000F907C0F012161306E407F50798F0621B65
:101EA000730B840B950B39F40A2661F0232B242B3A
:101EB000252B21F408950A2609F4A140A6958FEF59
:101EC000811D811D08950E94760F0C94E70F0E94DA
:101ED000D90F38F00E94E00F20F0952311F00C94F8
:101EE000D00F0C94D60F11240C941B100E94F80FE5
:101EF00070F3959FC1F3950F50E0551F629FF0015D
:101F0000729FBB27F00DB11D639FAA27F00DB11D75
:101F1000AA1F649F6627B00DA11D661F829F2227FE
:101F2000B00DA11D621F739FB00DA11D621F839F85
:101F3000A00D611D221F749F3327A00D611D231F5B
:101F4000849F600D211D822F762F6A2F11249F57A9
:101F500050409AF0F1F088234AF0EE0FFF1FBB1FAC
:101F6000661F771F881F91505040A9F79E3F51056B
:101F700080F00C94D00F0C941B105F3FE4F3983E5C
:101F8000D4F3869577956795B795F795E7959F5F15
:101F9000C1F7FE2B880F911D9695879597F90895A7
:101FA00097F99F6780E870E060E008959FEF80EC0C
:101FB000089500240A9416161706180609060895AF
:101FC00000240A9412161306140605060895092E15
:101FD0000394000C11F4882352F0BB0F40F4BF2B84
:101FE00011F460FF04C06F5F7F4F8F4F9F4F0895C4
:101FF00057FD9058440F551F59F05F3F71F04795BA
:10200000880F97FB991F61F09F3F79F0879508959E
:10201000121613061406551FF2CF4695F1DF08C0BD
:10202000161617061806991FF1CF869571056105DA
:1020300008940895E894BB2766277727CB0197F982
:1020400008952F923F924F925F926F927F928F925C
:102050009F92AF92BF92CF92DF92EF92FF920F9337
:102060001F93CF93DF93CDB7DEB7CA1BDB0B0FB641
:10207000F894DEBF0FBECDBF09942A8839884888FE
:102080005F846E847D848C849B84AA84B984C88494
:10209000DF80EE80FD800C811B81AA81B981CE0F8B
:1020A000D11D0FB6F894DEBF0FBECDBFED01089570
:0420B000F894FFCFD2
:1020B400FFFFFFFFFFFFFFFF000059028000000049
:1020C400400014005400001F1C1F1E1F1E1F1F1E53
:1020D4001F1E1F1000FF0FFF3FFFFFFF3FFF0F10EA
:1020E400000000A40194028403280546056405A1A8
:1020F400050000000067023702FD01E901DA01D999
:1021040001000000001403AE0125357500300020E5
:102114005354200020202020003A002F002D0000DE
:00000001FF
