:100000000C9469000C9496020C946F020C9491006D
:100010000C9491000C9491000C9491000C9491001C
:100020000C9491000C9491000C9491000C9491000C
:100030000C9491000C9491000C9491000C949100FC
:100040000C94C80A0C9491000C9491000C949100AB
:100050000C9491000C9491000C9491000C949100DC
:100060000C94FD030C949100CD08D008D308D60859
:10007000D908DC08DF080000000023002600290062
:100080000000000800020100000304070000000057
:100090000000000000000000250028002B000000E8
:1000A0000000240027002A000404040404040404BB
:1000B0000202020202020303030303030102040813
:1000C00010204080010204081020010204081020C2
:1000D000481011241FBECFEFD8E0DEBFCDBF11E026
:1000E000A0E0B1E0E6E0FFE202C005900D92A23F81
:1000F000B107D9F723E0A2EFB1E001C01D92A9300A
:10010000B207E1F710E0C9E6D0E004C02197FE0194
:100110000E94B910C836D107C9F70E94120B0C947F
:1001200081170C9400000895CF92DF92EF92FF9216
:100130000F931F93CF93DF936C017A018B01C0E083
:10014000D0E0CE15DF0589F0D8016D918D01D60183
:10015000ED91FC910190F081E02DC6010995892B6C
:1001600011F47E0102C02196ECCFC701DF91CF913F
:100170001F910F91FF90EF90DF90CF900895FC01B9
:10018000848191E09093BE028093E0021092BF02BE
:100190001092E1028385862B90E00E942A090C943C
:1001A00043090E947013CF92DF92EF92FF92CF9398
:1001B000DF938091250281110DC00E945D0A60933A
:1001C000210270932202809323029093240281E003
:1001D000809325020E945D0AC0902102D0902202E5
:1001E000E0902302F09024029B01AC012C193D0900
:1001F0004E095F0969017A0160932102709322021E
:1002000080932302909324022091EE0230E0F901C2
:10021000E058FF4F8491F901E454FF4FD491F90164
:10022000E855FF4FC491CC2309F483C081110E948B
:10023000040AEC2FF0E0EE0FFF1FEA58FF4FA591E4
:10024000B491EC91ED2309F474C080911F02909158
:100250002002009789F432E9C31A3CE1D30AE1088D
:10026000F1084EEDC4164FE0D406E104F10408F0A5
:10027000E3C081E090E098C052E2C51A52E0D50A8E
:10028000E108F1082FEFC216D104E104F10408F0EF
:1002900048C08230910551F0039709F0CDC080919C
:1002A0001D0290911E02809709F0C6C0E0910302E2
:1002B00081E08E0F809303028091190290911A02BF
:1002C000A0911B02B0911C0234E0E39FF0011124C5
:1002D000ED50FE4F80839183A283B383809103020C
:1002E000837080930302909103028091F20198132E
:1002F0001BC08091F2018F5F8093F2018091F20127
:1003000083708093F20110C059EAC51A56E0D50AED
:10031000E108F10888EFC81683E0D806E104F1048B
:1003200078F181E0809318021092200210921F024F
:1003300083C080911F029091200281309105C9F500
:10034000D701C601865B9D40A109B1098F3E974048
:10035000A105B105C8F683E090E090932002809358
:100360001F02109218021092190210921A02109293
:100370001B0210921C0210921E0210921D025CC001
:100380008FEF9FEFDC018093190290931A02A093E4
:100390001B02B0931C0280911802811103C082E0FD
:1003A00090E002C080E090E09093200280931F02D2
:1003B00043C0039709F040C08091190290911A023E
:1003C000A0911B02B0911C02880F991FAA1FBB1F8E
:1003D0008093190290931A02A0931B02B0931C02FF
:1003E00020911D0230911E022F5F3F4F30931E025D
:1003F00020931D02B701A601465E544061097109B0
:100400004A3F52406105710550F4816080931902A2
:1004100090931A02A0931B02B0931C020DC03FE5FB
:10042000C31A31E0D30AE108F1084FEFC416D10432
:10043000E104F10408F075CFDF91CF91FF90EF90C8
:10044000DF90CF900895EF92FF920F931F93CF9379
:10045000DF93EC01198218821B821A821D821C8292
:1004600061157105A9F17B01FB0101900020E9F7FD
:1004700031978F01061B170BB8016F5F7F4F80E02C
:1004800090E00E94A612009759F0998388831B83FD
:100490000A832C813D81232B81F4FC0110820DC045
:1004A00088819981009711F00E940E12198218829A
:1004B0001D821C821B821A820BC01D830C83B70114
:1004C000DF91CF911F910F91FF90EF900C947E13CD
:1004D000DF91CF911F910F91FF90EF9008951F92A0
:1004E0000F920FB60F9211242F933F934F935F9368
:1004F0006F937F938F939F93AF93BF93EF93FF93EC
:10050000E0910A01F0910B010995FF91EF91BF91E4
:10051000AF919F918F917F916F915F914F913F919B
:100520002F910F900FBE0F901F9018951F920F9252
:100530000FB60F9211242F933F934F935F936F93B6
:100540007F938F939F93AF93BF93EF93FF93E0912C
:100550000801F09109010995FF91EF91BF91AF91C9
:100560009F918F917F916F915F914F913F912F91CB
:100570000F900FBE0F901F9018950F931F93CF935E
:100580008C01C62F0E94BF006C2F6460C8010E94BE
:10059000BF006C2F6B7FC8010E94BF0083EC90E00E
:1005A0000197F1F7CF911F910F9108950895E09170
:1005B000050280910402E81730F4F0E0E958FD4F9D
:1005C000808190E008958FEF9FEF0895909105024C
:1005D00080910402981750F4E92FF0E0E958FD4F9C
:1005E000208130E09F5F9093050202C02FEF3FEF24
:1005F000C90108958091040290E020910502821BB8
:100600009109089585ED8093BC008091BC0084FD24
:10061000FCCF1092BD02089540915202262F30E087
:10062000240F311D21323105DCF42091BD0224302C
:10063000C9F4FC0180E090E0861758F43091520232
:100640002191DC01A05DBD4FA30FB11D2C9301963C
:10065000F3CF80915202680F6093520280E00895B8
:1006600081E0089582E00895CF92DF92EF92FF92A9
:100670000F931F93CF93DF937C01262F972F8A012F
:100680008091BE02882391F0C62FD72F6E01C40E31
:10069000D51ECC15DD0571F06991D701ED91FC9166
:1006A0000190F081E02DC7010995F3CF642F822FCF
:1006B0000E940C03C801DF91CF911F910F91FF9011
:1006C000EF90DF90CF900895CF93DF931F92CDB737
:1006D000DEB769832091BE022223D1F02091E1028E
:1006E000203240F021E030E0FC013383228380E0BF
:1006F00090E015C08091BF02E82FF0E0E054FD4F7C
:10070000998190838F5F8093BF028093E10205C03F
:1007100061E0CE0101960E940C0381E090E00F9011
:10072000DF91CF9108950F931F93CF938C01C62F24
:10073000607F61600E94BD0280E1C89FB00111240A
:100740006160C8010E94BD0281E090E0CF911F91DD
:100750000F9108958F929F92AF92BF92EF92FF9266
:100760000F931F93CF93DF93CDB7DEB7A1970FB64B
:10077000F894DEBF0FBECDBF182F7B018A3020F466
:1007800088EC91E00E944109212F30E040E050E0E8
:1007900019A28E010F5D1F4F8AE0882E912CA12C8B
:1007A000B12CCA01B901A50194010E949710605DA6
:1007B000F80162938F01211531054105510589F733
:1007C000CF010E942F09F701448155816081718119
:1007D00080EF92E00E949400A1960FB6F894DEBFDD
:1007E0000FBECDBFDF91CF911F910F91FF90EF9082
:1007F000BF90AF909F908F9008951F920F920FB669
:100800000F9211242F933F934F935F936F937F9396
:100810008F939F93AF93BF93EF93FF938091B90012
:10082000887F803609F49CC068F5883209F45BC083
:1008300090F4803109F454C038F4882309F4F6C0E8
:10084000883009F44DC0F6C0883109F44CC08032BC
:1008500009F45DC0EFC0803409F468C048F4803307
:1008600009F455C0883309F0E5C08093BB02D8C0B5
:10087000803509F44FC0883509F45DC0883409F02B
:10088000D9C0D6C0883909F4C7C0A8F4883709F49C
:1008900067C038F4883609F463C0803709F460C053
:1008A000C9C0883809F4B8C0803909F45FC08038FD
:1008B00009F0C0C05BC0803B09F486C038F4803AC0
:1008C00009F466C0883A09F47FC0B4C0803C09F4DA
:1008D000A7C0883C09F4A4C0883B09F48AC0AAC018
:1008E0008091980210C09091BA028091B902981735
:1008F00070F5E091BA0281E08E0F8093BA02F0E0C9
:10090000E756FD4F80818093BB0085EC86C08093C5
:10091000BB028EC0E091BA0281E08E0F8093BA02D2
:100920008091BB00F0E0E756FD4F80839091BA02C2
:100930008091B9026EC0E091BA0281E08E0F80937F
:10094000BA028091BB00F0E0E756FD4F80838091B2
:10095000BC0281116DC081E08093970284EA61C07E
:1009600083E08093BD0210927602CFCF8091760211
:10097000803208F051C0E091760281E08E0F8093C2
:1009800076028091BB00F0E0EA5AFD4F8083BDCF34
:1009900085EC8093BC001092BD028091760280327B
:1009A00030F4E0917602F0E0EA5AFD4F1082609157
:1009B000760270E0E0915402F091550286E592E0F3
:1009C00009951092760236C084E08093BD021092A1
:1009D000530210925202E0915002F0915102099597
:1009E00080915202811105C081E0809352021092E1
:1009F0003002E091530281E08E0F80935302F0E0C9
:100A0000E05DFD4F80818093BB0090915302809107
:100A10005202981708F479CF85E88093BC000AC089
:100A200085EC8093BC001092BD0204C01092BB0202
:100A30000E940203FF91EF91BF91AF919F918F911F
:100A40007F916F915F914F913F912F910F900FBECA
:100A50000F901F9018951092BD0281E08093BC0208
:100A60001092970261E082E10E942D0A61E083E129
:100A70000E942D0AE9EBF0E080818E7F80838081E7
:100A80008D7F808388E48093B80085E48093BC00E8
:100A900008953FB7F894909103028091F201981362
:100AA00002C03FBFBDC0E091F20124E0E29FF0012F
:100AB0001124ED50FE4F80819181A281B38120915C
:100AC000F2012F5F2093F2012091F2012370209315
:100AD000F2013FBF8D3A22E592072FEFA207B10541
:100AE00009F496C008F041C08D3D22E292072FEF35
:100AF000A207B10509F48EC0C0F48F3E20E1920731
:100B00002FEFA207B10509F47DC0873E28E19207C7
:100B10002FEFA207B10509F473C08D3F9240AF4F8C
:100B2000B10509F07DC08BE40895873C28E3920766
:100B30002FEFA207B10509F467C040F48F3C904342
:100B4000AF4FB10509F06CC084E308958D3B22E4FA
:100B500092072FEFA207B10509F458C0853B9A44CC
:100B6000AF4FB10509F45EC05BC0873628E9920734
:100B70002FEFA207B10509F43FC0F8F48D3922E642
:100B800092072FEFA207B10509F448C040F4853A57
:100B90009A45AF4FB10509F043C089E308958739FD
:100BA00028E692072FEFA207B10521F185389A4771
:100BB000AF4FB105A9F586E308958F3420EB920776
:100BC0002FEFA207B105D1F038F48735984AAF4F1F
:100BD000B10531F584E408958D3322EC92072FEFAF
:100BE000A207B105C9F08F3F9F4FAF4FBF4FC1F470
:100BF00088E5089581E3089582E3089583E30895E5
:100C000085E3089587E3089588E308958AE20895C7
:100C100083E208958CE4089582E5089585E50895BA
:100C200080E0089580E30895CF92DF92EF92FF92E3
:100C300080910C0220910B0230E09CE3899F200DF3
:100C4000311D1124E9E5F1E080E090E041915191FE
:100C50002417350788F1408151812417350760F545
:100C6000880F991FFC01E55BFE4F6081718180E078
:100C700090E00E942B166B017C019B01AC016091FE
:100C800014027091150280911602909117020E9431
:100C90002616882399F010921402109215021092D1
:100CA000160210921702C0920602D0920702E0923A
:100CB0000802F092090202C00196C8CFFF90EF909F
:100CC000DF90CF9008950F931F93CF93DF93CDB70D
:100CD000DEB728970FB6F894DEBF0FBECDBF8B01ED
:100CE0008930910539F00A9749F470938B0060932D
:100CF0008A0004C0709389006093880061E0011548
:100D000080E1180708F060E08DE00E942D0A61E0A4
:100D10000F3F8FEF180709F460E08CE00E942D0A66
:100D20001F930F9387E991E09F938F938E010F5F3D
:100D30001F4F1F930F930E94851360E08BE00E946A
:100D4000B109C8010E9441090F900F900F900F90B8
:100D50000F900F9028960FB6F894DEBF0FBECDBF50
:100D6000DF91CF911F910F910895CF92DF92EF9273
:100D7000FF92F82E20E030E0A901609114027091FA
:100D8000150280911602909117020E942616811179
:100D900020C08091060290910702A0910802B091B4
:100DA00009028093140290931502A0931602B09347
:100DB000170280910D0290910E02A0910F02B09146
:100DC00010028093060290930702A0930802B0934A
:100DD00009022DEC3CEC4CE85FE360910602709157
:100DE00007028091080290910902FF2089F00E9479
:100DF0008C166B017C0120E03FEF4FE757E40E9427
:100E0000741118168CF480E09FEFAFE7B7E419C0B7
:100E10000E94D3106B017C0120E030E040E851E4F7
:100E20000E94261687FD09C0C0920602D0920702D2
:100E3000E0920802F09209020CC080E090E0A0E885
:100E4000B1E48093060290930702A0930802B09346
:100E50000902609106027091070280910802909148
:100E6000090260930D0270930E0280930F0290931B
:100E700010020E9445118AE090E0FF90EF90DF9011
:100E8000CF900C94630680911202833051F018F4D5
:100E90008130B0F133C08A30D9F090F18D3070F1EB
:100EA0002FC020911302293148F180912F02873001
:100EB00031F481E090910C02923018F51FC0922F0E
:100EC000981B993108F4995F81E02917D0F416C076
:100ED000209113022931A0F080912F02873031F444
:100EE00081E090910C02923060F008C0922F981B24
:100EF000993108F4995F81E0921718F480E0089521
:100F000081E00895EF92FF920F931F93CF93DF93A9
:100F100000D000D000D0CDB7DEB781E08093BE0214
:100F200088E68093E0021092BF021092E10280E016
:100F300090E00E942A090E9443098091BD0281111C
:100F4000FCCF81E08093BD028093BC029FEF909321
:100F5000BB021092BA0296E09093B9028093980275
:100F600080919802806D80939802809197028130E1
:100F700061F410929702809198028093BB00809157
:100F8000BC0083FDF8CF85EC01C085EE8093BC00EA
:100F90008091BD028130E1F38091BA02873018F46C
:100FA0008091BA0201C087E0A9E9B2E027E732E008
:100FB000F9019E2F921B981718F49D919193F9CFE8
:100FC0001092050280930402882309F436C182EE50
:100FD00092E00E94E60280930A0282EE92E00E9472
:100FE000E60280930B0282EE92E00E94E60280937A
:100FF0000C0282EE92E00E94E602182F82EE92E04E
:101000000E94E6028093130282EE92E00E94E602C2
:101010008093120282EE92E00E94E60290910A0210
:10102000292F22952F709F703AE0239F900D112455
:1010300090930A0290910B02292F22952F709F7096
:101040003AE0239F900D112490930B0290910C0293
:10105000292F2073F22EF694F694F6942F2D220F5A
:10106000220FF20E9F70F90EF0920C021770E12E13
:1010700010932F0290911302092F00730695069585
:101080000695202F220F220F020F9F70090F009349
:1010900013029091120294FB112710F9110F212FC6
:1010A000220F220F120F9F70190F10931202982F08
:1010B00092959F708F702AE0929F800D11248093EB
:1010C00011020E94430780932E02882301F191E0D0
:1010D0009F0D983118F490930C0219C010920C02D5
:1010E00081E08E0D883009F481E080932F020F5F3C
:1010F00000931302E12FF0E0E85EFE4F808180173D
:1011000030F481E0809313021F5F109312020E945B
:10111000DD0965E971E0CE0101960E942302BE015E
:101120006F5F7F4F80910C020E94AA0389819A8190
:101130000E940E1265E971E0CE0101960E94230221
:10114000BE016F5F7F4F80910B020E94AA038981CD
:101150009A810E940E1263EB71E0CE0101960E940B
:101160002302BE016F5F7F4F80910A020E94AA0393
:1011700089819A810E940E1261E080E00E94B1098B
:10118000E0912F028E2F90E0FC013197E730F105BE
:10119000D0F4EC5CFF4F0C94B9108FEC91E011C0CF
:1011A00084ED91E00EC089ED91E00BC08EED91E0F1
:1011B00008C083EE91E005C088EE91E002C08DEE9C
:1011C00091E00E94410962EA71E0CE0101960E941D
:1011D0002302BE016F5F7F4F809113020E94AA031A
:1011E00089819A810E940E1264EA71E0CE01019613
:1011F0000E942302BE016F5F7F4F809112020E9406
:10120000AA0389819A810E940E1280912E02811177
:1012100003C062EB71E002C06AEC71E0CE0101969E
:101220000E942302BE016F5F7F4F809111020E94D6
:10123000AA0389819A810E940E1226960FB6F8940D
:10124000DEBF0FBECDBFDF91CF911F910F91FF90F9
:10125000EF900895682F82EE92E00C94640300975B
:1012600069F0FC0101900020E9F73197AF01481BBC
:10127000590BBC0180EF92E00C94940080E090E068
:1012800008950C942F092091E1029091E0022132FF
:1012900008F04AC08091BD028111FCCF32E030934A
:1012A000BD0231E03093BC023FEF3093BB0210929D
:1012B000BA022093B902A0ECB2E049E952E0FA0187
:1012C0003E2F341B321718F43D913193F9CF109211
:1012D000980220919802990F922B909398029091E6
:1012E0009702913061F41092970290919802909336
:1012F000BB009091BC0093FDF8CF95EC01C095EE3A
:101300009093BC009091BD029230E1F39091BB02AA
:101310009F3F79F08091BB02803241F08091BB0207
:10132000803331F084E005C081E003C082E001C079
:1013300083E01092BF021092E1021092BE02089563
:10134000CF93C82F682F607F80EF92E00E94BD028C
:1013500080E1C89FB001112480EF92E0CF910C94FE
:10136000BD02CF93DF93CDB7DEB728970FB6F894C1
:10137000DEBF0FBECDBF98E0E9E6F1E0DE011196D9
:1013800001900D929A95E1F79091F802961710F45A
:101390006FEF690FFE013196E60FF11DE60FF11DAB
:1013A0009081890F806828960FB6F894DEBF0FBE33
:1013B000CDBFDF91CF910C94A00982E00E94A009DB
:1013C0008BE39FE10197F1F7089590E0FC01E4546D
:1013D000FF4F2491FC01E855FF4F8491882399F039
:1013E00090E0880F991FFC01E256FF4FA591B49140
:1013F000FC01EC56FF4F859194918FB7F894EC91D6
:10140000E22BEC938FBF0895833081F028F4813074
:1014100099F08230A1F008958730A9F08830B9F0B2
:101420008430D1F4809180008F7D03C08091800052
:101430008F7780938000089584B58F7702C084B53C
:101440008F7D84BD08958091B0008F7703C0809117
:10145000B0008F7D8093B00008951F93CF93DF93EA
:10146000282F30E0F901E058FF4F8491F901E4544E
:10147000FF4FD491F901E855FF4FC491CC23C9F037
:10148000162F81110E94040AEC2FF0E0EE0FFF1FCF
:10149000EC56FF4FA591B4918FB7F894111105C088
:1014A0009C91ED2FE095E92302C0EC91ED2BEC939C
:1014B0008FBFDF91CF911F9108953FB7F89480912E
:1014C000010390910203A0910303B091040326B598
:1014D000A89B05C02F3F19F00196A11DB11D3FBF6C
:1014E000BA2FA92F982F8827820F911DA11DB11DFA
:1014F000BC01CD0142E0660F771F881F991F4A95F6
:10150000D1F708958F929F92AF92BF92CF92DF92C0
:10151000EF92FF926B017C010E945D0A4B015C011E
:10152000C114D104E104F104F1F00E945D0ADC0170
:10153000CB0188199909AA09BB09883E9340A105E6
:10154000B10570F321E0C21AD108E108F10888EE74
:10155000880E83E0981EA11CB11CC114D104E104C3
:10156000F10419F7DDCFFF90EF90DF90CF90BF909F
:10157000AF909F908F9008952FB7F8946091FD02DF
:101580007091FE028091FF02909100032FBF089599
:101590001F920F920FB60F9211242F933F938F93A8
:1015A0009F93AF93BF938091FD029091FE02A09113
:1015B000FF02B09100033091FC0223E0230F2D378E
:1015C00020F40196A11DB11D05C026E8230F029647
:1015D000A11DB11D2093FC028093FD029093FE0299
:1015E000A093FF02B0930003809101039091020346
:1015F000A0910303B09104030196A11DB11D809336
:10160000010390930203A0930303B0930403BF91DB
:10161000AF919F918F913F912F910F900FBE0F909F
:101620001F901895CF93DF93CDB7DEB764970FB6B1
:10163000F894DEBF0FBECDBF789484B5826084BDC0
:1016400084B5816084BD85B5826085BD85B58160C6
:1016500085BD80916E00816080936E001092810044
:1016600080918100826080938100809181008160FF
:1016700080938100809180008160809380008091C0
:10168000B10084608093B1008091B000816080934C
:10169000B00080917A00846080937A0080917A0013
:1016A000826080937A0080917A00816080937A00D2
:1016B00080917A00806880937A001092C100109225
:1016C0000502109204021092BF021092E1020E94E1
:1016D0002B051092BF021092E1020E942B0510927E
:1016E000F5028091FA02823018F098E09093F502AA
:1016F0008093F80262E370E080E090E00E94820A4A
:101700006091FB0280EF92E00E94BF0068EE73E000
:1017100080E090E00E94820A60E380EF92E00E9405
:10172000BD020BE416E4C8010197F1F760E380EF16
:1017300092E00E94BD02C8010197F1F760E380EFDB
:1017400092E00E94BD0283E592E00197F1F760E22A
:1017500080EF92E00E94BD028091F50280620E94BB
:10176000A00984E08093F6028CE00E94A00981E049
:101770000E94A0098BE39FE10197F1F782E080933B
:10178000F70286E00E94A0090E94DD0988E08093AC
:10179000FB0260E080EF92E00E94BF008DE00E94BB
:1017A000E5098CE00E94E50984B1866084B982EA8B
:1017B0008093800089E1809381008FEF9FEF909369
:1017C0008700809386000E9482070E941406609121
:1017D00006027091070280910802909109026093BD
:1017E0000D0270930E0280930F02909310020E94DC
:1017F00045118AE090E00E946306CE0101965C01EB
:101800000E94BC0A6B017C0128EE33E040E050E00E
:101810000E9497108091040190910501A09106010A
:10182000B0910701281739074A075B0761F0209339
:1018300004013093050140930601509307010E9473
:1018400082070E941406C701B60124E630E040E09A
:1018500050E00E9497108091000190910101A091A9
:101860000201B0910301281739074A075B0709F401
:1018700089C02093000130930101409302015093ED
:101880000301C0900602D0900702E0900802F09099
:10189000090240900D0250900E0260900F0270906D
:1018A0001002A3019201C701B6010E9426168823E7
:1018B00009F468C0A3019201C701B6010E94741126
:1018C00018160CF529EB36E140E85FE3C301B201DD
:1018D0000E948C162B013C01A70196010E947411F5
:1018E00087FF09C040920D0250920E0260920F02D3
:1018F0007092100208C0C0920D02D0920E02E092C7
:101900000F02F092100240900D0250900E02609073
:101910000F0270901002A3019201C701B6010E944C
:10192000261687FF21C029EB36E140E85FE3C301BB
:10193000B2010E94D3102B013C01A70196010E9425
:10194000261618164CF440920D0250920E02609228
:101950000F027092100208C0C0920D02D0920E02C7
:10196000E0920F02F092100260910D0270910E024F
:1019700080910F02909110020E9445118AE090E040
:101980000E9463060E944905882309F45AC38835DA
:1019900011F480912D02843409F46EC00CF063C000
:1019A000813309F47AC0823309F049C310922D02C1
:1019B0000E94BC0A2B013C010E94DD098BE991E0E9
:1019C0000E944109809113021F928F9300E911E058
:1019D0001F930F93BF92AF920E94851362EA71E04A
:1019E000CE0103960E947E13809112021F928F9364
:1019F0001F930F93CE0104969F938F930E9485139C
:101A000064EA71E0CE0106960E947E138091110275
:101A10001F928F931F930F93CE0107969F938F93DF
:101A20000E94851364EB71E0CE0109960E947E133B
:101A3000C5010E94410960E086E00E94B1098091E1
:101A4000F602982F92609093F6028A600E94A00995
:101A50000FB6F894DEBF0FBECDBF00E010E0F12C52
:101A60006AE0962E4EC18B3469F0853509F0E7C2E5
:101A700080932D0281E003C080932D0280E00E94BC
:101A8000B506DFC210922D021092140210921502B8
:101A90001092160210921702D4C210922D020E94C8
:101AA000BC0A6B017C010E94DD0989E891E00E947B
:101AB000410980910C021F928F9300E911E01F935E
:101AC0000F93BF92AF920E94851365E971E0CE013A
:101AD00003960E947E1380910B021F928F931F9397
:101AE0000F93CE0104969F938F930E94851365E90F
:101AF00071E0CE0106960E947E1380910A021F9229
:101B00008F931F930F93CE0107969F938F930E94FD
:101B1000851364EB71E0CE0109960E947E13C50126
:101B20000E94410960E086E00E94B1098091F602BE
:101B3000982F92609093F6028A600E94A0090FB6D7
:101B4000F894DEBF0FBECDBF00E010E00E94BC0ADB
:101B5000DC01CB018C199D09AE09BF098133954782
:101B6000A105B10508F03EC20E944905882371F322
:101B7000833209F437C28C8B0E94BC0A6B017C0152
:101B80002C8980ED820F8A30C8F50230110511F1E1
:101B90003CF40115110561F00130110579F03CC0EC
:101BA00004301105B9F0C4F005301105A9F034C0B6
:101BB000233394F5298301E010E02EC0898182331C
:101BC00019F424331CF01FC0823334F52A8302E059
:101BD00010E022C0263304F5F801EE0FFF1FE15C90
:101BE000FE4F0190F081E02D8BEF9FEF8C0F9D1F3A
:101BF000E80FF91F20830F5F1F4F0EC0223519F425
:101C00000F5F1F4F37C22C3439F4015011090630D1
:101C100011050CF033C25AC02B3409F02BC22981B4
:101C2000022E000C330B205331094AE0429FC001C1
:101C3000439F900D11240A81002E000C110B0053BC
:101C40001109080F191F0E944307882331F0015022
:101C5000110917FF02C007E110E081E08093BE0286
:101C600088E68093E0021092BF021092E10280E0C9
:101C700090E00E942A092F81022E000C330B205382
:101C80003109E4E0220F331FEA95E1F78885082E39
:101C9000000C990BC097820F931F0E942A092C8178
:101CA000022E000C330B20533109F4E0220F331FB6
:101CB000FA95E1F78D81082E000C990BC097820FE1
:101CC000931F0E942A09802F6AE066C10F3F4FEFE1
:101CD000140711F405E010E060E086E00E94B1090D
:101CE000C5010E944109F801EE0FFF1FE15CFE4FA4
:101CF00060E080810E94B10929CF0E9449058111CD
:101D00000EC00E94BC0ADC01CB0184199509A6090A
:101D1000B70981339547A105B10578F363C18332D3
:101D200009F460C18C8B0E94BC0A2B013C012C89F8
:101D3000FF2069F061E080E00E94B10986EA91E04D
:101D40000E94410960E086E00E94B1092C8980ED83
:101D5000820F8A3008F05AC00330110579F13CF443
:101D60000130110571F00230110511F103C0063088
:101D70001105D4F124330CF057C0298301E010E0A1
:101D800055C04981042E000C550B40535109949EB7
:101D9000C001959E900D1124820F911D27FD9A95EB
:101DA000C1974F9708F042C02A8302E010E03EC07E
:101DB0002233E4F52C8303E010E038C04C81042E7C
:101DC000000C550B40535109949EC001959E900DF7
:101DD0001124820F911D27FD9A95C1970C9730F51C
:101DE0002D8304E010E022C0F801EE0FFF1FE15C3C
:101DF000FE4F0190F081E02D8BEF9FEF8C0F9D1F28
:101E0000E80FF91F20830F5F1F4F10C0223519F410
:101E10000F5F1F4F36C12C3449F4015011090630B1
:101E200011050CF032C1C6C000E010E02B3409F0FF
:101E300028C14981CA802C81022E000C330B20530B
:101E40003109929EC001939E900D1124ED800E2CBD
:101E5000000CFF0820E3E21AF108E80EF91E8F815A
:101E600098859701215031092C30310508F0F1C0D7
:101E7000042E000C550B40535109949E9001959EE1
:101E8000300D11240C2C000CDD0840E3C41AD108DD
:101E9000C20ED31E1C141D040CF0DBC0482F880F8B
:101EA000550B40535109949E9001959E300D11247D
:101EB000092F990F110B00531109020F131FF7017E
:101EC000E85EFE4F808190E08C159D0584F482E0F1
:101ED000E816F10409F0BDC09DE1C916D10409F06E
:101EE000B8C0C80183709927892B09F0B2C081E07E
:101EF0008093BE0288E68093E0021092BF021092A7
:101F0000E10283E090E00E942A09C80117FD0396D0
:101F100095958795959587958C0D9D1DF701EE0FED
:101F2000FF1FEB5DFE4F20813181820F931F23E065
:101F3000E216F10434F4980123703327232B09F4BB
:101F400001970696800F911F67E070E00E94831052
:101F50000197181619060CF007960E942A091AE034
:101F60008C2D612F0E947710692F20E1829F600DD8
:101F7000112482EE92E00E9464038E2D612F0E9454
:101F80007710692F40E1849F600D112482EE92E06A
:101F90000E946403802F612F0E947710692F20E137
:101FA000829F600D112482EE92E00E9464030E94E1
:101FB000430918C00F3F4FEF140711F405E010E07C
:101FC00060E086E00E94B109C5010E944109F80164
:101FD000EE0FFF1FE15CFE4F60E080810E94B109BF
:101FE000F12C8FCE8091F6028D7F8093F60288606F
:101FF0000E94A00960910D0270910E0280910F0263
:10200000909110020E9445117F936F9387E991E0B0
:102010009F938F938E01045F1F4F1F930F930E9416
:10202000851360E08BE00E94B109C8010E9441095C
:102030000F900F900F900F900F900F9002C0109282
:102040002D0280E090E0892B09F4DACB0E94000099
:10205000D4CB61E080E00E94B10987EB91E00E945F
:10206000410960E086E00E94B10900E010E0FF2431
:10207000F39447CE063011050CF42ECE00E010E0AC
:102080002BCE063011050CF49BCF00E010E098CF6A
:10209000E2EEF2E01382128288EE93E0A0E0B0E07C
:1020A00084839583A683B78385E791E091838083BA
:1020B000E0EFF2E01382128285E891E09183808361
:1020C0008FE3848380E1818782E082871386809317
:1020D000EE0283ED90E09093090180930801E9E618
:1020E000F0E080818C7F81608083E89A0895991B5D
:1020F00079E004C0991F961708F0961B881F7A95FF
:10210000C9F78095089597FB072E16F4009407D021
:1021100077FD09D00E94BF1007FC05D03EF49095D2
:1021200081959F4F0895709561957F4F0895A1E225
:102130001A2EAA1BBB1BFD010DC0AA1FBB1FEE1F41
:10214000FF1FA217B307E407F50720F0A21BB30B8C
:10215000E40BF50B661F771F881F991F1A9469F708
:1021600060957095809590959B01AC01BD01CF0164
:102170000895EE0FFF1F0590F491E02D0994AA1B1E
:10218000BB1B51E107C0AA1FBB1FA617B70710F062
:10219000A61BB70B881F991F5A95A9F78095909594
:1021A000BC01CD0108950E94E7100C9410170E9405
:1021B000091758F00E94021740F029F45F3F29F0F8
:1021C0000C94F91651110C9444170C94FF160E94AC
:1021D000211768F39923B1F3552391F3951B550B00
:1021E000BB27AA2762177307840738F09F5F5F4FEA
:1021F000220F331F441FAA1FA9F335D00E2E3AF029
:10220000E0E832D091505040E695001CCAF72BD040
:10221000FE2F29D0660F771F881FBB1F2617370791
:102220004807AB07B0E809F0BB0B802DBF01FF27C3
:1022300093585F4F3AF09E3F510578F00C94F91691
:102240000C9444175F3FE4F3983ED4F3869577955A
:102250006795B795F7959F5FC9F7880F911D96957C
:10226000879597F90895E1E0660F771F881FBB1FD8
:10227000621773078407BA0720F0621B730B840B85
:10228000BA0BEE1F88F7E09508950E94291788F091
:102290009F5798F0B92F9927B751B0F0E1F0660F2A
:1022A000771F881F991F1AF0BA95C9F714C0B1306B
:1022B00091F00E944317B1E008950C944317672FE3
:1022C000782F8827B85F39F0B93FCCF3869577959A
:1022D0006795B395D9F73EF4909580957095619583
:1022E0007F4F8F4F9F4F08950E94681608F48FEF1D
:1022F0000895CF93DF938230910510F482E090E04F
:10230000E0910703F091080320E030E0C0E0D0E066
:10231000309711F14081518148175907C0F0481793
:10232000590761F482819381209719F09B838A83F6
:102330002BC0909308038093070326C02115310515
:1023400019F04217530718F49A01BE01DF01EF019B
:102350000280F381E02DDCCF2115310509F1281B26
:10236000390B2430310590F412968D919C9113977E
:102370006115710521F0FB019383828304C0909362
:10238000080380930703FD01329644C0FD01E20F6C
:10239000F31F81939193225031092D933C933AC0BE
:1023A0002091050330910603232B41F420910E0167
:1023B00030910F01309306032093050320910C0107
:1023C00030910D012115310541F42DB73EB74091F3
:1023D000100150911101241B350BE0910503F09180
:1023E0000603E217F307A0F42E1B3F0B281739074B
:1023F00078F0AC014E5F5F4F2417350748F04E0F61
:102400005F1F50930603409305038193919302C08D
:10241000E0E0F0E0CF01DF91CF9108950F931F939B
:10242000CF93DF93009709F48CC0FC01329713829D
:10243000128200910703109108030115110581F420
:1024400020813181820F931F209105033091060373
:102450002817390779F5F0930603E093050371C057
:10246000D80140E050E0AE17BF0750F412962D910E
:102470003C911397AD012115310509F1D901F3CF35
:102480009D01DA013383228360817181860F971F5A
:102490008217930769F4EC0128813981260F371FD1
:1024A0002E5F3F4F318320838A819B819383828378
:1024B000452B29F4F0930803E093070342C01396D9
:1024C000FC93EE931297ED01499159919E01240FCF
:1024D000351FE217F30771F480819181840F951FF6
:1024E000029611969C938E938281938113969C936E
:1024F0008E931297E0E0F0E0D80112968D919C91B6
:102500001397009719F0F8018C01F6CF8D919C91EB
:1025100098012E5F3F4F820F931F2091050330914A
:1025200006032817390769F4309729F41092080335
:102530001092070302C013821282109306030093C5
:102540000503DF91CF911F910F910895A0E0B0E0B6
:10255000ECEAF2E10C944E17EC01009721F4CB0168
:102560000E947911B8C0FC01E60FF71F9C012250B0
:102570003109E217F30708F4ACC0D9010D911C91A1
:10258000119706171707B0F00530110508F49FC022
:10259000C80104978617970708F499C002501109DB
:1025A000061B170B019311936D937C93CF010E942F
:1025B0000E128DC05B01A01AB10A4C01800E911E53
:1025C000A0910703B091080340E050E0E12CF12C0A
:1025D000109709F44AC0A815B905D1F56D907C9003
:1025E0001197630182E0C80ED11CCA14DB0480F18C
:1025F000A3014A195B096A0182E0C80ED11C129638
:10260000BC9012971396AC91B5E0CB16D10440F074
:10261000B282A38351834083D9016D937C930AC016
:102620000E5F1F4FC301800F911FF90191838083BB
:10263000EB2DFA2FE114F10431F0D7011396FC933E
:10264000EE93129744C0F0930803E09307033FC052
:102650008D919C9111974817590708F4AC017D01A1
:1026600012960D90BC91A02DB3CF8091050390914F
:10267000060388159905E1F446175707C8F48091B9
:102680000C0190910D01009741F48DB79EB74091D8
:10269000100150911101841B950BE817F907C8F43C
:1026A000F0930603E0930503F901718360830FC083
:1026B000CB010E9479117C01009759F0A801BE015D
:1026C0000E947513CE010E940E12C70104C0CE01F4
:1026D00002C080E090E0CDB7DEB7EEE00C946A1760
:1026E00081E090E0F8940C948117FB01DC0102C0BA
:1026F00001900D9241505040D8F70895FB01DC0144
:1027000001900D920020E1F70895AEE0B0E0EBE813
:10271000F3E10C9458170D891E8986E08C831A8387
:1027200009838FEF9FE79E838D83AE01475E5F4FE6
:102730006F89788DCE0101960E94A8132F8138856C
:10274000F801E20FF31F10822E96E4E00C94741748
:10275000ACE0B0E0EEEAF3E10C944A177C016B01C7
:102760008A01FC0117821682838181FFBDC1CE01DF
:1027700001964C01F7019381F60193FD859193FF3A
:1027800081916F01882309F4ABC1853239F493FD3F
:10279000859193FF81916F01853229F4B70190E013
:1027A0000E949015E7CF512C312C20E02032A0F46C
:1027B0008B3269F030F4803259F0833269F4206151
:1027C0002CC08D3239F0803339F4216026C022606C
:1027D000246023C0286021C027FD27C030ED380FBA
:1027E0003A3078F426FF06C0FAE05F9E300D1124DF
:1027F000532E13C08AE0389E300D1124332E2062F0
:102800000CC08E3221F426FD6BC1206406C08C36CC
:1028100011F4206802C0883641F4F60193FD8591D9
:1028200093FF81916F018111C1CF982F9F7D9554A6
:10283000933028F40C5F1F4FFFE3F9830DC08336FC
:1028400031F0833771F0833509F05BC022C0F801A5
:10285000808189830E5F1F4F44244394512C54017F
:1028600015C03801F2E06F0E711CF801A080B18034
:1028700026FF03C0652D70E002C06FEF7FEFC5013A
:102880002C870E9485152C0183012C852F77222E01
:1028900017C03801F2E06F0E711CF801A080B18002
:1028A00026FF03C0652D70E002C06FEF7FEFC5010A
:1028B0002C870E947A152C012C852068222E8301FA
:1028C00023FC1BC0832D90E048165906B0F4B701D5
:1028D00080E290E00E9490153A94F4CFF50127FC35
:1028E000859127FE81915F01B70190E00E949015CC
:1028F00031103A94F1E04F1A51084114510471F724
:10290000E5C0843611F0893639F5F80127FF07C094
:1029100060817181828193810C5F1F4F08C060814B
:102920007181072E000C880B990B0E5F1F4F2F76BD
:10293000722E97FF09C090958095709561957F4F95
:102940008F4F9F4F2068722E2AE030E0A4010E9432
:10295000C815A82EA81844C0853729F42F7EB22E9A
:102960002AE030E025C0F22FF97FBF2E8F36C1F06C
:1029700018F4883579F0B4C0803719F0883721F021
:10298000AFC02F2F2061B22EB4FE0DC08B2D8460FE
:10299000B82E09C024FF0AC09F2F9660B92E06C02A
:1029A00028E030E005C020E130E002C020E132E064
:1029B000F801B7FE07C060817181828193810C5F4D
:1029C0001F4F06C06081718180E090E00E5F1F4F55
:1029D000A4010E94C815A82EA818FB2DFF777F2EF2
:1029E00076FE0BC0372D3E7FA51450F474FE0AC04E
:1029F00072FC08C0372D3E7E05C0BA2C372D03C0AF
:102A0000BA2C01C0B52C34FF0DC0FE01EA0DF11D3A
:102A10008081803311F4397E09C032FF06C0B3943F
:102A2000B39404C0832F867809F0B39433FD13C0A8
:102A300030FF06C05A2CB31418F4530C5B18B32C97
:102A4000B31468F4B70180E290E03C870E949015CF
:102A5000B3943C85F5CFB31410F43B1801C0312C6E
:102A600034FF12C0B70180E390E03C870E949015CC
:102A70003C8532FF17C031FD03C088E790E002C0FB
:102A800088E590E0B7010CC0832F867859F031FFBC
:102A900002C08BE201C080E237FD8DE2B70190E019
:102AA0000E949015A51438F4B70180E390E00E94CD
:102AB00090155A94F7CFAA94F401EA0DF11D808184
:102AC000B70190E00E949015A110F5CF332009F4D2
:102AD00051CEB70180E290E00E9490153A94F6CF73
:102AE000F7018681978102C08FEF9FEF2C96E2E17C
:102AF0000C946617FC010590615070400110D8F7E6
:102B0000809590958E0F9F1F0895FC016150704035
:102B100001900110D8F7809590958E0F9F1F089512
:102B20000F931F93CF93DF93FB01238121FD03C0FC
:102B30008FEF9FEF28C022FF16C046815781248166
:102B400035814217530744F4A081B1819D012F5F65
:102B50003F4F318320838C93268137812F5F3F4FF6
:102B60003783268310C0EB01092F182F0084F185CD
:102B7000E02D0995892BE1F68E819F8101969F8337
:102B80008E83812F902FDF91CF911F910F91089508
:102B9000FA01AA27283051F1203181F1E8946F938E
:102BA0006E7F6E5F7F4F8F4F9F4FAF4FB1E03ED034
:102BB000B4E03CD0670F781F891F9A1FA11D680FD2
:102BC000791F8A1F911DA11D6A0F711D811D911D05
:102BD000A11D20D009F468943F912AE0269F11247A
:102BE0003019305D3193DEF6CF010895462F4770DE
:102BF000405D4193B3E00FD0C9F7F6CF462F4F7039
:102C0000405D4A3318F0495D31FD4052419302D096
:102C1000A9F7EACFB4E0A69597958795779567953C
:102C2000BA95C9F700976105710508959B01AC013C
:102C30000A2E06945795479537952795BA95C9F763
:102C4000620F731F841F951FA01D08950E946816B0
:102C500008F481E00895E89409C097FB3EF490954C
:102C60008095709561957F4F8F4F9F4F9923A9F065
:102C7000F92F96E9BB279395F695879577956795F4
:102C8000B795F111F8CFFAF4BB0F11F460FF1BC038
:102C90006F5F7F4F8F4F9F4F16C0882311F096E9CB
:102CA00011C0772321F09EE8872F762F05C0662379
:102CB00071F096E8862F70E060E02AF09A95660F32
:102CC000771F881FDAF7880F9695879597F90895EB
:102CD000990F0008550FAA0BE0E8FEEF161617062D
:102CE000E807F907C0F012161306E407F50798F095
:102CF000621B730B840B950B39F40A2661F0232BAE
:102D0000242B252B21F408950A2609F4A140A69529
:102D10008FEF811D811D08950E949F160C9410173E
:102D20000E94021738F00E94091720F0952311F035
:102D30000C94F9160C94FF1611240C9444170E945D
:102D4000211770F3959FC1F3950F50E0551F629FB7
:102D5000F001729FBB27F00DB11D639FAA27F00DF4
:102D6000B11DAA1F649F6627B00DA11D661F829F1B
:102D70002227B00DA11D621F739FB00DA11D621F00
:102D8000839FA00D611D221F749F3327A00D611D1D
:102D9000231F849F600D211D822F762F6A2F1124FF
:102DA0009F5750409AF0F1F088234AF0EE0FFF1F32
:102DB000BB1F661F771F881F91505040A9F79E3F89
:102DC000510580F00C94F9160C9444175F3FE4F31E
:102DD000983ED4F3869577956795B795F795E795DF
:102DE0009F5FC1F7FE2B880F911D9695879597F9E8
:102DF000089597F99F6780E870E060E008959FEF7D
:102E000080EC089500240A94161617061806090681
:102E1000089500240A941216130614060506089550
:102E2000092E0394000C11F4882352F0BB0F40F4D8
:102E3000BF2B11F460FF04C06F5F7F4F8F4F9F4F18
:102E4000089557FD9058440F551F59F05F3F71F09A
:102E50004795880F97FB991F61F09F3F79F0879501
:102E60000895121613061406551FF2CF4695F1DF8A
:102E700008C0161617061806991FF1CF869571051A
:102E8000610508940895E894BB2766277727CB014E
:102E900097F908952F923F924F925F926F927F928F
:102EA0008F929F92AF92BF92CF92DF92EF92FF925A
:102EB0000F931F93CF93DF93CDB7DEB7CA1BDB0B06
:102EC0000FB6F894DEBF0FBECDBF09942A883988AB
:102ED00048885F846E847D848C849B84AA84B984B2
:102EE000C884DF80EE80FD800C811B81AA81B981BE
:102EF000CE0FD11D0FB6F894DEBF0FBECDBFED01D2
:062F00000895F894FFCFD4
:102F0600FFFFFFFFFFFFFFFF930093000000090391
:102F160080000C000D000A00001F1C1F1E1F1E1F34
:102F26001F1E1F1E1F0000010004000400000002F7
:102F3600000500000003000600010004000600066C
:102F460000070009000A000C000D001000FF0FFF2B
:102F56003FFFFFFF3FFF0F10000000A40194028413
:102F660003280546056405A1050000400014005429
:102F7600000000000064033403FA02E602D702D61A
:102F860002000000009303940054696D653A200026
:102F960025303275003A0025357500446174653A6E
:102FA60020002F002D00202020202020202020205F
:102FB6002020202020200042616420646174652066
:102FC6002020202020202000300020535420004DB7
:102FD6006F6E2000547565200057656420005468A4
:102FE6007520004672692000536174200053756E87
:022FF6002000B9
:00000001FF
